{
  "contractName": "NoteOwnership",
  "abi": [
    {
      "constant": false,
      "inputs": [
        {
          "name": "_to",
          "type": "address"
        },
        {
          "name": "_tokenId",
          "type": "uint256"
        }
      ],
      "name": "approve",
      "outputs": [],
      "payable": false,
      "stateMutability": "nonpayable",
      "type": "function"
    },
    {
      "constant": false,
      "inputs": [
        {
          "name": "_age",
          "type": "uint8"
        },
        {
          "name": "_metaData",
          "type": "string"
        },
        {
          "name": "_gender",
          "type": "string"
        },
        {
          "name": "_encryptedData",
          "type": "string"
        }
      ],
      "name": "createNote",
      "outputs": [],
      "payable": true,
      "stateMutability": "payable",
      "type": "function"
    },
    {
      "constant": false,
      "inputs": [],
      "name": "withdraw",
      "outputs": [],
      "payable": false,
      "stateMutability": "nonpayable",
      "type": "function"
    },
    {
      "constant": true,
      "inputs": [
        {
          "name": "_owner",
          "type": "address"
        }
      ],
      "name": "getNotesByOwner",
      "outputs": [
        {
          "name": "",
          "type": "uint256[]"
        }
      ],
      "payable": false,
      "stateMutability": "view",
      "type": "function"
    },
    {
      "constant": true,
      "inputs": [
        {
          "name": "",
          "type": "uint256"
        }
      ],
      "name": "notes",
      "outputs": [
        {
          "name": "age",
          "type": "uint8"
        },
        {
          "name": "metaData",
          "type": "string"
        },
        {
          "name": "gender",
          "type": "string"
        },
        {
          "name": "encryptedData",
          "type": "string"
        },
        {
          "name": "creator",
          "type": "address"
        }
      ],
      "payable": false,
      "stateMutability": "view",
      "type": "function"
    },
    {
      "constant": true,
      "inputs": [
        {
          "name": "_tokenId",
          "type": "uint256"
        }
      ],
      "name": "ownerOf",
      "outputs": [
        {
          "name": "_owner",
          "type": "address"
        }
      ],
      "payable": false,
      "stateMutability": "view",
      "type": "function"
    },
    {
      "constant": true,
      "inputs": [
        {
          "name": "_owner",
          "type": "address"
        }
      ],
      "name": "balanceOf",
      "outputs": [
        {
          "name": "_balance",
          "type": "uint256"
        }
      ],
      "payable": false,
      "stateMutability": "view",
      "type": "function"
    },
    {
      "constant": true,
      "inputs": [
        {
          "name": "_tokenId",
          "type": "uint256"
        }
      ],
      "name": "isApproved",
      "outputs": [
        {
          "name": "_approved",
          "type": "bool"
        }
      ],
      "payable": false,
      "stateMutability": "view",
      "type": "function"
    },
    {
      "constant": true,
      "inputs": [],
      "name": "owner",
      "outputs": [
        {
          "name": "",
          "type": "address"
        }
      ],
      "payable": false,
      "stateMutability": "view",
      "type": "function"
    },
    {
      "constant": false,
      "inputs": [
        {
          "name": "_to",
          "type": "address"
        },
        {
          "name": "_tokenId",
          "type": "uint256"
        }
      ],
      "name": "transfer",
      "outputs": [],
      "payable": false,
      "stateMutability": "nonpayable",
      "type": "function"
    },
    {
      "constant": true,
      "inputs": [
        {
          "name": "_noteId",
          "type": "uint256"
        }
      ],
      "name": "getNote",
      "outputs": [
        {
          "name": "age",
          "type": "uint8"
        },
        {
          "name": "metaData",
          "type": "string"
        },
        {
          "name": "gender",
          "type": "string"
        },
        {
          "name": "encryptedData",
          "type": "string"
        },
        {
          "name": "creator",
          "type": "address"
        }
      ],
      "payable": false,
      "stateMutability": "view",
      "type": "function"
    },
    {
      "constant": false,
      "inputs": [
        {
          "name": "_tokenId",
          "type": "uint256"
        }
      ],
      "name": "takeOwnership",
      "outputs": [],
      "payable": false,
      "stateMutability": "nonpayable",
      "type": "function"
    },
    {
      "constant": false,
      "inputs": [
        {
          "name": "newOwner",
          "type": "address"
        }
      ],
      "name": "transferOwnership",
      "outputs": [],
      "payable": false,
      "stateMutability": "nonpayable",
      "type": "function"
    },
    {
      "anonymous": false,
      "inputs": [
        {
          "indexed": false,
          "name": "_me",
          "type": "address"
        },
        {
          "indexed": false,
          "name": "_tokenId",
          "type": "uint256"
        },
        {
          "indexed": false,
          "name": "approved",
          "type": "bool"
        }
      ],
      "name": "Check",
      "type": "event"
    },
    {
      "anonymous": false,
      "inputs": [
        {
          "indexed": false,
          "name": "noteId",
          "type": "uint256"
        },
        {
          "indexed": false,
          "name": "age",
          "type": "uint8"
        },
        {
          "indexed": false,
          "name": "metaData",
          "type": "string"
        },
        {
          "indexed": false,
          "name": "gender",
          "type": "string"
        },
        {
          "indexed": false,
          "name": "encryptedData",
          "type": "string"
        },
        {
          "indexed": false,
          "name": "creator",
          "type": "address"
        }
      ],
      "name": "NewNote",
      "type": "event"
    },
    {
      "anonymous": false,
      "inputs": [
        {
          "indexed": true,
          "name": "previousOwner",
          "type": "address"
        },
        {
          "indexed": true,
          "name": "newOwner",
          "type": "address"
        }
      ],
      "name": "OwnershipTransferred",
      "type": "event"
    },
    {
      "anonymous": false,
      "inputs": [
        {
          "indexed": true,
          "name": "_from",
          "type": "address"
        },
        {
          "indexed": true,
          "name": "_to",
          "type": "address"
        },
        {
          "indexed": false,
          "name": "_tokenId",
          "type": "uint256"
        }
      ],
      "name": "Transfer",
      "type": "event"
    },
    {
      "anonymous": false,
      "inputs": [
        {
          "indexed": true,
          "name": "_owner",
          "type": "address"
        },
        {
          "indexed": true,
          "name": "_approved",
          "type": "address"
        },
        {
          "indexed": false,
          "name": "_tokenId",
          "type": "uint256"
        }
      ],
      "name": "Approval",
      "type": "event"
    }
  ],
  "bytecode": "0x6060604052336000806101000a81548173ffffffffffffffffffffffffffffffffffffffff021916908373ffffffffffffffffffffffffffffffffffffffff160217905550611ac1806100536000396000f3006060604052600436106100c5576000357c0100000000000000000000000000000000000000000000000000000000900463ffffffff168063095ea7b3146100ca578063153ef7cb1461010c5780633ccfd60b14610163578063570a3b271461017857806361c3a7e6146102065780636352211e1461041157806370a08231146104745780637910867b146104c15780638da5cb5b146104fc578063a9059cbb14610551578063a965a94114610593578063b2e6ceeb14610747578063f2fde38b1461076a575b600080fd5b34156100d557600080fd5b61010a600480803573ffffffffffffffffffffffffffffffffffffffff169060200190919080359060200190919050506107a3565b005b610161600480803560ff16906020019091908035906020019082018035906020019190919290803590602001908201803590602001919091929080359060200190820180359060200191909192905050610910565b005b341561016e57600080fd5b6101766109bb565b005b341561018357600080fd5b6101af600480803573ffffffffffffffffffffffffffffffffffffffff16906020019091905050610a90565b6040518080602001828103825283818151815260200191508051906020019060200280838360005b838110156101f25780820151818401526020810190506101d7565b505050509050019250505060405180910390f35b341561021157600080fd5b6102276004808035906020019091905050610bbe565b604051808660ff1660ff1681526020018060200180602001806020018573ffffffffffffffffffffffffffffffffffffffff1673ffffffffffffffffffffffffffffffffffffffff1681526020018481038452888181546001816001161561010002031660029004815260200191508054600181600116156101000203166002900480156102f65780601f106102cb576101008083540402835291602001916102f6565b820191906000526020600020905b8154815290600101906020018083116102d957829003601f168201915b50508481038352878181546001816001161561010002031660029004815260200191508054600181600116156101000203166002900480156103795780601f1061034e57610100808354040283529160200191610379565b820191906000526020600020905b81548152906001019060200180831161035c57829003601f168201915b50508481038252868181546001816001161561010002031660029004815260200191508054600181600116156101000203166002900480156103fc5780601f106103d1576101008083540402835291602001916103fc565b820191906000526020600020905b8154815290600101906020018083116103df57829003601f168201915b50509850505050505050505060405180910390f35b341561041c57600080fd5b6104326004808035906020019091905050610c2d565b604051808273ffffffffffffffffffffffffffffffffffffffff1673ffffffffffffffffffffffffffffffffffffffff16815260200191505060405180910390f35b341561047f57600080fd5b6104ab600480803573ffffffffffffffffffffffffffffffffffffffff16906020019091905050610c6a565b6040518082815260200191505060405180910390f35b34156104cc57600080fd5b6104e26004808035906020019091905050610cb3565b604051808215151515815260200191505060405180910390f35b341561050757600080fd5b61050f610d1e565b604051808273ffffffffffffffffffffffffffffffffffffffff1673ffffffffffffffffffffffffffffffffffffffff16815260200191505060405180910390f35b341561055c57600080fd5b610591600480803573ffffffffffffffffffffffffffffffffffffffff16906020019091908035906020019091905050610d43565b005b341561059e57600080fd5b6105b46004808035906020019091905050610d96565b604051808660ff1660ff1681526020018060200180602001806020018573ffffffffffffffffffffffffffffffffffffffff1673ffffffffffffffffffffffffffffffffffffffff168152602001848103845288818151815260200191508051906020019080838360005b8381101561063a57808201518184015260208101905061061f565b50505050905090810190601f1680156106675780820380516001836020036101000a031916815260200191505b50848103835287818151815260200191508051906020019080838360005b838110156106a0578082015181840152602081019050610685565b50505050905090810190601f1680156106cd5780820380516001836020036101000a031916815260200191505b50848103825286818151815260200191508051906020019080838360005b838110156107065780820151818401526020810190506106eb565b50505050905090810190601f1680156107335780820380516001836020036101000a031916815260200191505b509850505050505050505060405180910390f35b341561075257600080fd5b6107686004808035906020019091905050610ff4565b005b341561077557600080fd5b6107a1600480803573ffffffffffffffffffffffffffffffffffffffff16906020019091905050611087565b005b803373ffffffffffffffffffffffffffffffffffffffff166107c482610c2d565b73ffffffffffffffffffffffffffffffffffffffff161415156107e657600080fd5b8273ffffffffffffffffffffffffffffffffffffffff166004600084815260200190815260200160002060009054906101000a900473ffffffffffffffffffffffffffffffffffffffff1673ffffffffffffffffffffffffffffffffffffffff161415151561085457600080fd5b826004600084815260200190815260200160002060006101000a81548173ffffffffffffffffffffffffffffffffffffffff021916908373ffffffffffffffffffffffffffffffffffffffff1602179055508273ffffffffffffffffffffffffffffffffffffffff163373ffffffffffffffffffffffffffffffffffffffff167f8c5be1e5ebec7d5bd14f71427d1e84f3dd0314c0f7b2291e5b200ac8c7c3b925846040518082815260200191505060405180910390a3505050565b6109b28787878080601f01602080910402602001604051908101604052809392919081815260200183838082843782019150505050505086868080601f01602080910402602001604051908101604052809392919081815260200183838082843782019150505050505085858080601f0160208091040260200160405190810160405280939291908181526020018383808284378201915050505050506111dc565b50505050505050565b6000809054906101000a900473ffffffffffffffffffffffffffffffffffffffff1673ffffffffffffffffffffffffffffffffffffffff163373ffffffffffffffffffffffffffffffffffffffff16141515610a1657600080fd5b6000809054906101000a900473ffffffffffffffffffffffffffffffffffffffff1673ffffffffffffffffffffffffffffffffffffffff166108fc3073ffffffffffffffffffffffffffffffffffffffff16319081150290604051600060405180830381858888f193505050501515610a8e57600080fd5b565b610a986118c4565b610aa06118c4565b600080600360008673ffffffffffffffffffffffffffffffffffffffff1673ffffffffffffffffffffffffffffffffffffffff16815260200190815260200160002054604051805910610af05750595b9080825280602002602001820160405250925060009150600090505b600180549050811015610bb3578473ffffffffffffffffffffffffffffffffffffffff166002600083815260200190815260200160002060009054906101000a900473ffffffffffffffffffffffffffffffffffffffff1673ffffffffffffffffffffffffffffffffffffffff161415610ba657808383815181101515610b8f57fe5b906020019060200201818152505081806001019250505b8080600101915050610b0c565b829350505050919050565b600181815481101515610bcd57fe5b90600052602060002090600502016000915090508060000160009054906101000a900460ff16908060010190806002019080600301908060040160009054906101000a900473ffffffffffffffffffffffffffffffffffffffff16905085565b60006002600083815260200190815260200160002060009054906101000a900473ffffffffffffffffffffffffffffffffffffffff169050919050565b6000600360008373ffffffffffffffffffffffffffffffffffffffff1673ffffffffffffffffffffffffffffffffffffffff168152602001908152602001600020549050919050565b60003373ffffffffffffffffffffffffffffffffffffffff166004600084815260200190815260200160002060009054906101000a900473ffffffffffffffffffffffffffffffffffffffff1673ffffffffffffffffffffffffffffffffffffffff16149050919050565b6000809054906101000a900473ffffffffffffffffffffffffffffffffffffffff1681565b803373ffffffffffffffffffffffffffffffffffffffff16610d6482610c2d565b73ffffffffffffffffffffffffffffffffffffffff16141515610d8657600080fd5b610d913384846115bc565b505050565b6000610da06118d8565b610da86118d8565b610db06118d8565b600080600187815481101515610dc257fe5b906000526020600020906005020190508060000160009054906101000a900460ff169550806001018054600181600116156101000203166002900480601f016020809104026020016040519081016040528092919081815260200182805460018160011615610100020316600290048015610e7e5780601f10610e5357610100808354040283529160200191610e7e565b820191906000526020600020905b815481529060010190602001808311610e6157829003601f168201915b50505050509450806002018054600181600116156101000203166002900480601f016020809104026020016040519081016040528092919081815260200182805460018160011615610100020316600290048015610f1d5780601f10610ef257610100808354040283529160200191610f1d565b820191906000526020600020905b815481529060010190602001808311610f0057829003601f168201915b50505050509350806003018054600181600116156101000203166002900480601f016020809104026020016040519081016040528092919081815260200182805460018160011615610100020316600290048015610fbc5780601f10610f9157610100808354040283529160200191610fbc565b820191906000526020600020905b815481529060010190602001808311610f9f57829003601f168201915b505050505092508060040160009054906101000a900473ffffffffffffffffffffffffffffffffffffffff1691505091939590929450565b60003373ffffffffffffffffffffffffffffffffffffffff166004600084815260200190815260200160002060009054906101000a900473ffffffffffffffffffffffffffffffffffffffff1673ffffffffffffffffffffffffffffffffffffffff1614151561106357600080fd5b61106c82610c2d565b905061107881836117a4565b6110838133846115bc565b5050565b6000809054906101000a900473ffffffffffffffffffffffffffffffffffffffff1673ffffffffffffffffffffffffffffffffffffffff163373ffffffffffffffffffffffffffffffffffffffff161415156110e257600080fd5b600073ffffffffffffffffffffffffffffffffffffffff168173ffffffffffffffffffffffffffffffffffffffff161415151561111e57600080fd5b8073ffffffffffffffffffffffffffffffffffffffff166000809054906101000a900473ffffffffffffffffffffffffffffffffffffffff1673ffffffffffffffffffffffffffffffffffffffff167f8be0079c531659141344cd1fd0a4f28419497f9722a3daafe3b4186f6b6457e060405160405180910390a3806000806101000a81548173ffffffffffffffffffffffffffffffffffffffff021916908373ffffffffffffffffffffffffffffffffffffffff16021790555050565b600060018080548060010182816111f391906118ec565b9160005260206000209060050201600060a0604051908101604052808a60ff1681526020018981526020018881526020018781526020013373ffffffffffffffffffffffffffffffffffffffff16815250909190915060008201518160000160006101000a81548160ff021916908360ff160217905550602082015181600101908051906020019061128692919061191e565b5060408201518160020190805190602001906112a392919061191e565b5060608201518160030190805190602001906112c092919061191e565b5060808201518160040160006101000a81548173ffffffffffffffffffffffffffffffffffffffff021916908373ffffffffffffffffffffffffffffffffffffffff1602179055505050039050336002600083815260200190815260200160002060006101000a81548173ffffffffffffffffffffffffffffffffffffffff021916908373ffffffffffffffffffffffffffffffffffffffff1602179055506113b26001600360003373ffffffffffffffffffffffffffffffffffffffff1673ffffffffffffffffffffffffffffffffffffffff1681526020019081526020016000205461188d90919063ffffffff16565b600360003373ffffffffffffffffffffffffffffffffffffffff1673ffffffffffffffffffffffffffffffffffffffff168152602001908152602001600020819055507f4473031b750bc879f231ab561fe0e9b0b2a441e364c588b2e02788b724039e16818686868633604051808781526020018660ff1660ff1681526020018060200180602001806020018573ffffffffffffffffffffffffffffffffffffffff1673ffffffffffffffffffffffffffffffffffffffff168152602001848103845288818151815260200191508051906020019080838360005b838110156114a857808201518184015260208101905061148d565b50505050905090810190601f1680156114d55780820380516001836020036101000a031916815260200191505b50848103835287818151815260200191508051906020019080838360005b8381101561150e5780820151818401526020810190506114f3565b50505050905090810190601f16801561153b5780820380516001836020036101000a031916815260200191505b50848103825286818151815260200191508051906020019080838360005b83811015611574578082015181840152602081019050611559565b50505050905090810190601f1680156115a15780820380516001836020036101000a031916815260200191505b50995050505050505050505060405180910390a15050505050565b61160f6001600360008573ffffffffffffffffffffffffffffffffffffffff1673ffffffffffffffffffffffffffffffffffffffff1681526020019081526020016000205461188d90919063ffffffff16565b600360008473ffffffffffffffffffffffffffffffffffffffff1673ffffffffffffffffffffffffffffffffffffffff168152602001908152602001600020819055506116a56001600360003373ffffffffffffffffffffffffffffffffffffffff1673ffffffffffffffffffffffffffffffffffffffff168152602001908152602001600020546118ab90919063ffffffff16565b600360003373ffffffffffffffffffffffffffffffffffffffff1673ffffffffffffffffffffffffffffffffffffffff16815260200190815260200160002081905550816002600083815260200190815260200160002060006101000a81548173ffffffffffffffffffffffffffffffffffffffff021916908373ffffffffffffffffffffffffffffffffffffffff1602179055508173ffffffffffffffffffffffffffffffffffffffff168373ffffffffffffffffffffffffffffffffffffffff167fddf252ad1be2c89b69c2b068fc378daa952ba7f163c4a11628f55a4df523b3ef836040518082815260200191505060405180910390a3505050565b8173ffffffffffffffffffffffffffffffffffffffff166117c482610c2d565b73ffffffffffffffffffffffffffffffffffffffff161415156117e657600080fd5b60006004600083815260200190815260200160002060006101000a81548173ffffffffffffffffffffffffffffffffffffffff021916908373ffffffffffffffffffffffffffffffffffffffff16021790555060008273ffffffffffffffffffffffffffffffffffffffff167f8c5be1e5ebec7d5bd14f71427d1e84f3dd0314c0f7b2291e5b200ac8c7c3b925836040518082815260200191505060405180910390a35050565b60008082840190508381101515156118a157fe5b8091505092915050565b60008282111515156118b957fe5b818303905092915050565b602060405190810160405280600081525090565b602060405190810160405280600081525090565b81548183558181151161191957600502816005028360005260206000209182019101611918919061199e565b5b505050565b828054600181600116156101000203166002900490600052602060002090601f016020900481019282601f1061195f57805160ff191683800117855561198d565b8280016001018555821561198d579182015b8281111561198c578251825591602001919060010190611971565b5b50905061199a9190611a28565b5090565b611a2591905b80821115611a2157600080820160006101000a81549060ff02191690556001820160006119d19190611a4d565b6002820160006119e19190611a4d565b6003820160006119f19190611a4d565b6004820160006101000a81549073ffffffffffffffffffffffffffffffffffffffff0219169055506005016119a4565b5090565b90565b611a4a91905b80821115611a46576000816000905550600101611a2e565b5090565b90565b50805460018160011615610100020316600290046000825580601f10611a735750611a92565b601f016020900490600052602060002090810190611a919190611a28565b5b505600a165627a7a72305820b700c43f99d2e00488348de9c337c2322f4f8fcd94a7c2b27c88c878e46fc2630029",
  "source": "pragma solidity ^0.4.18;\n\nimport \"./PatientNotes.sol\";\nimport \"../node_modules/zeppelin-solidity/contracts/token/ERC721/ERC721.sol\";\nimport \"../node_modules/zeppelin-solidity/contracts/math/SafeMath.sol\";\n\ncontract NoteOwnership is ERC721, PatientNotes {\n  using SafeMath for uint256;\n\n  event Check(address _me, uint _tokenId, bool approved);\n\n  // Mapping from token ID to approved address\n  mapping (uint256 => address) private tokenApprovals;\n\n  /**\n  * @dev Guarantees msg.sender is owner of the given token\n  * @param _tokenId uint256 ID of the token to validate its ownership belongs to msg.sender\n  */\n  modifier onlyOwnerOf(uint256 _tokenId) {\n    require(ownerOf(_tokenId) == msg.sender);\n    _;\n  }\n\n  /**\n  * @dev Gets the balance of the specified address\n  * @param _owner address to query the balance of\n  * @return uint256 representing the amount owned by the passed address\n  */\n  function balanceOf(address _owner) public view returns (uint256 _balance) {\n    return ownerNoteCount[_owner];\n  }\n\n  /**\n  * @dev Gets the list of tokens owned by a given address\n  * @param _owner address to query the tokens of\n  * @return uint256[] representing the list of tokens owned by the passed address\n  */\n  function ownerOf(uint256 _tokenId) public view returns (address _owner) {\n    return noteToOwner[_tokenId];\n  }\n\n  /**\n  * @dev Abstracts the transfer logic into its own function to use elsewhere\n  * @param _from address sending token, _to address receiving the token with token _tokenId\n  */\n  function _transfer(address _from, address _to, uint256 _tokenId) private {\n    ownerNoteCount[_to] = ownerNoteCount[_to].add(1);\n    ownerNoteCount[msg.sender] = ownerNoteCount[msg.sender].sub(1);\n    noteToOwner[_tokenId] = _to;\n    Transfer(_from, _to, _tokenId);\n  }\n\n  /**\n  * @dev implements the public transfer function\n  */\n  function transfer(address _to, uint256 _tokenId) public onlyOwnerOf(_tokenId) {\n    _transfer(msg.sender, _to, _tokenId);\n  }\n\n  /**\n  * @dev Approves an address to claim for the ownership of the given token ID\n  * @param _to address to be approved for the given token ID\n  * @param _tokenId uint256 ID of the token to be approved\n  */\n  function approve(address _to, uint256 _tokenId) public onlyOwnerOf(_tokenId) {\n    require(tokenApprovals[_tokenId] != _to);\n    tokenApprovals[_tokenId] = _to;\n    Approval(msg.sender, _to, _tokenId);\n  }\n\n  /**\n  * @dev Allows a user to see if he or she is approved for a token before attempting to claim ownership\n  * @param _tokenId uint the token potentially approved to own\n  * @notice - we don't allow people to check if others are approved to take tokens, but could be changed in the future\n  */\n  function isApproved(uint _tokenId) public view returns (bool _approved) {\n    return tokenApprovals[_tokenId] == msg.sender;\n  }\n  /**\n  * @dev Claims the ownership of a given token ID\n  * @param _tokenId uint256 ID of the token being claimed by the msg.sender\n  */\n  function takeOwnership(uint256 _tokenId) public {\n    require(tokenApprovals[_tokenId] == msg.sender);\n    address owner = ownerOf(_tokenId);\n    clearApproval(owner, _tokenId);\n    _transfer(owner, msg.sender, _tokenId);\n  }\n\n  /**\n  * @dev Internal function to clear current approval of a given token ID\n  * @param _tokenId uint256 ID of the token to be transferred\n  */\n  function clearApproval(address _owner, uint256 _tokenId) private {\n    require(ownerOf(_tokenId) == _owner);\n    tokenApprovals[_tokenId] = 0;\n    Approval(_owner, 0, _tokenId);\n  }\n}\n",
  "sourcePath": "/Users/schwartzz8990/Dropbox/Blockchain/myData-medical/app/contracts/NoteOwnership.sol",
  "compiler": {
    "name": "solc",
    "version": "0.4.18+commit.9cf6e910.Emscripten.clang"
  },
  "schemaVersion": "1.0.1",
  "updatedAt": "2018-03-19T14:35:04.210Z"
}