{
  "contractName": "NoteCreation",
  "abi": [
    {
      "constant": false,
      "inputs": [],
      "name": "withdraw",
      "outputs": [],
      "payable": false,
      "stateMutability": "nonpayable",
      "type": "function"
    },
    {
      "constant": true,
      "inputs": [
        {
          "name": "",
          "type": "uint256"
        }
      ],
      "name": "notes",
      "outputs": [
        {
          "name": "age",
          "type": "uint8"
        },
        {
          "name": "gender",
          "type": "string"
        },
        {
          "name": "encryptedData",
          "type": "string"
        },
        {
          "name": "creator",
          "type": "address"
        }
      ],
      "payable": false,
      "stateMutability": "view",
      "type": "function"
    },
    {
      "constant": true,
      "inputs": [],
      "name": "owner",
      "outputs": [
        {
          "name": "",
          "type": "address"
        }
      ],
      "payable": false,
      "stateMutability": "view",
      "type": "function"
    },
    {
      "constant": false,
      "inputs": [
        {
          "name": "_age",
          "type": "uint8"
        },
        {
          "name": "_gender",
          "type": "string"
        },
        {
          "name": "_encryptedData",
          "type": "string"
        }
      ],
      "name": "createNote",
      "outputs": [],
      "payable": true,
      "stateMutability": "payable",
      "type": "function"
    },
    {
      "constant": false,
      "inputs": [
        {
          "name": "newOwner",
          "type": "address"
        }
      ],
      "name": "transferOwnership",
      "outputs": [],
      "payable": false,
      "stateMutability": "nonpayable",
      "type": "function"
    },
    {
      "anonymous": false,
      "inputs": [
        {
          "indexed": false,
          "name": "noteId",
          "type": "uint256"
        },
        {
          "indexed": false,
          "name": "age",
          "type": "uint8"
        },
        {
          "indexed": false,
          "name": "gender",
          "type": "string"
        },
        {
          "indexed": false,
          "name": "creator",
          "type": "address"
        }
      ],
      "name": "NewNote",
      "type": "event"
    },
    {
      "anonymous": false,
      "inputs": [
        {
          "indexed": true,
          "name": "previousOwner",
          "type": "address"
        },
        {
          "indexed": true,
          "name": "newOwner",
          "type": "address"
        }
      ],
      "name": "OwnershipTransferred",
      "type": "event"
    }
  ],
  "bytecode": "0x6060604052336000806101000a81548173ffffffffffffffffffffffffffffffffffffffff021916908373ffffffffffffffffffffffffffffffffffffffff160217905550610ace806100536000396000f30060606040526004361061006d576000357c0100000000000000000000000000000000000000000000000000000000900463ffffffff1680633ccfd60b1461007257806361c3a7e6146100875780638da5cb5b14610209578063d5c7f7391461025e578063f2fde38b146102a1575b600080fd5b341561007d57600080fd5b6100856102da565b005b341561009257600080fd5b6100a860048080359060200190919050506103af565b604051808560ff1660ff16815260200180602001806020018473ffffffffffffffffffffffffffffffffffffffff1673ffffffffffffffffffffffffffffffffffffffff1681526020018381038352868181546001816001161561010002031660029004815260200191508054600181600116156101000203166002900480156101735780601f1061014857610100808354040283529160200191610173565b820191906000526020600020905b81548152906001019060200180831161015657829003601f168201915b50508381038252858181546001816001161561010002031660029004815260200191508054600181600116156101000203166002900480156101f65780601f106101cb576101008083540402835291602001916101f6565b820191906000526020600020905b8154815290600101906020018083116101d957829003601f168201915b5050965050505050505060405180910390f35b341561021457600080fd5b61021c610419565b604051808273ffffffffffffffffffffffffffffffffffffffff1673ffffffffffffffffffffffffffffffffffffffff16815260200191505060405180910390f35b61029f600480803560ff169060200190919080359060200190820180359060200191909192908035906020019082018035906020019190919290505061043e565b005b34156102ac57600080fd5b6102d8600480803573ffffffffffffffffffffffffffffffffffffffff169060200190919050506104b4565b005b6000809054906101000a900473ffffffffffffffffffffffffffffffffffffffff1673ffffffffffffffffffffffffffffffffffffffff163373ffffffffffffffffffffffffffffffffffffffff1614151561033557600080fd5b6000809054906101000a900473ffffffffffffffffffffffffffffffffffffffff1673ffffffffffffffffffffffffffffffffffffffff166108fc3073ffffffffffffffffffffffffffffffffffffffff16319081150290604051600060405180830381858888f1935050505015156103ad57600080fd5b565b6001818154811015156103be57fe5b90600052602060002090600402016000915090508060000160009054906101000a900460ff1690806001019080600201908060030160009054906101000a900473ffffffffffffffffffffffffffffffffffffffff16905084565b6000809054906101000a900473ffffffffffffffffffffffffffffffffffffffff1681565b6104ad8585858080601f01602080910402602001604051908101604052809392919081815260200183838082843782019150505050505084848080601f016020809104026020016040519081016040528093929190818152602001838380828437820191505050505050610609565b5050505050565b6000809054906101000a900473ffffffffffffffffffffffffffffffffffffffff1673ffffffffffffffffffffffffffffffffffffffff163373ffffffffffffffffffffffffffffffffffffffff1614151561050f57600080fd5b600073ffffffffffffffffffffffffffffffffffffffff168173ffffffffffffffffffffffffffffffffffffffff161415151561054b57600080fd5b8073ffffffffffffffffffffffffffffffffffffffff166000809054906101000a900473ffffffffffffffffffffffffffffffffffffffff1673ffffffffffffffffffffffffffffffffffffffff167f8be0079c531659141344cd1fd0a4f28419497f9722a3daafe3b4186f6b6457e060405160405180910390a3806000806101000a81548173ffffffffffffffffffffffffffffffffffffffff021916908373ffffffffffffffffffffffffffffffffffffffff16021790555050565b600060018080548060010182816106209190610909565b916000526020600020906004020160006080604051908101604052808960ff1681526020018881526020018781526020013373ffffffffffffffffffffffffffffffffffffffff16815250909190915060008201518160000160006101000a81548160ff021916908360ff16021790555060208201518160010190805190602001906106ad92919061093b565b5060408201518160020190805190602001906106ca92919061093b565b5060608201518160030160006101000a81548173ffffffffffffffffffffffffffffffffffffffff021916908373ffffffffffffffffffffffffffffffffffffffff1602179055505050039050336002600083815260200190815260200160002060006101000a81548173ffffffffffffffffffffffffffffffffffffffff021916908373ffffffffffffffffffffffffffffffffffffffff1602179055506107bc6001600360003373ffffffffffffffffffffffffffffffffffffffff1673ffffffffffffffffffffffffffffffffffffffff168152602001908152602001600020546108eb90919063ffffffff16565b600360003373ffffffffffffffffffffffffffffffffffffffff1673ffffffffffffffffffffffffffffffffffffffff168152602001908152602001600020819055507f9f7a8dbddd308f6b93d25d5f2b42c1e464c00db67412db62532731e2a74a32fb81858533604051808581526020018460ff1660ff168152602001806020018373ffffffffffffffffffffffffffffffffffffffff1673ffffffffffffffffffffffffffffffffffffffff168152602001828103825284818151815260200191508051906020019080838360005b838110156108a857808201518184015260208101905061088d565b50505050905090810190601f1680156108d55780820380516001836020036101000a031916815260200191505b509550505050505060405180910390a150505050565b60008082840190508381101515156108ff57fe5b8091505092915050565b8154818355818115116109365760040281600402836000526020600020918201910161093591906109bb565b5b505050565b828054600181600116156101000203166002900490600052602060002090601f016020900481019282601f1061097c57805160ff19168380011785556109aa565b828001600101855582156109aa579182015b828111156109a957825182559160200191906001019061098e565b5b5090506109b79190610a35565b5090565b610a3291905b80821115610a2e57600080820160006101000a81549060ff02191690556001820160006109ee9190610a5a565b6002820160006109fe9190610a5a565b6003820160006101000a81549073ffffffffffffffffffffffffffffffffffffffff0219169055506004016109c1565b5090565b90565b610a5791905b80821115610a53576000816000905550600101610a3b565b5090565b90565b50805460018160011615610100020316600290046000825580601f10610a805750610a9f565b601f016020900490600052602060002090810190610a9e9190610a35565b5b505600a165627a7a723058205381c4b80be8834c44518e25e508ed11585fd52d0df1020514cecb3fb9d8cd700029",
  "source": "pragma solidity ^0.4.18;\n\nimport \"./Payable.sol\";\nimport \"../node_modules/zeppelin-solidity/contracts/math/SafeMath.sol\";\n\ncontract NoteCreation is Payable {\n  // @dev using SafeMath for all uints to avoid over/underflow\n  using SafeMath for uint256;\n\n  event NewNote(uint256 noteId, uint8 age, string gender, address creator);\n\n  // @param a note represents medical data for each patient - eventually patients will be able to publicize and privatize certain aspects of their data\n  struct Note {\n    uint8 age;\n    string gender;\n    string encryptedData;\n    address creator;\n  }\n\n  // @param to keep track of all the notes created in this smart contract\n  Note[] public notes;\n\n  // @dev we can find and update the note's owner // owner's note count on creation and on transfer events\n  mapping(uint => address) noteToOwner;\n  mapping(address => uint) ownerNoteCount;\n\n  // @notice we make this function internal because we might want to add extra validations\n  function _createNote(uint8 _age, string _gender, string _encryptedData) internal {\n    uint id = notes.push(Note(_age, _gender, _encryptedData, msg.sender)) - 1;\n    noteToOwner[id] = msg.sender;\n    ownerNoteCount[msg.sender] = ownerNoteCount[msg.sender].add(1);\n    NewNote(id, _age, _gender, msg.sender);\n  }\n\n  function createNote(uint8 _age, string _gender, string _encryptedData) external payable {\n    // @user we create a pay what you want structure for medical tokens\n    // @notice we can add require statements in the future about the msg.sender to make sure he or she isn't restricted for some reason here\n    _createNote(_age, _gender, _encryptedData);\n  }\n}\n",
  "sourcePath": "/Users/schwartzz8990/Dropbox/Blockchain/myData-medical/app/contracts/NoteCreation.sol",
  "compiler": {
    "name": "solc",
    "version": "0.4.18+commit.9cf6e910.Emscripten.clang"
  },
  "schemaVersion": "1.0.1",
  "updatedAt": "2018-03-12T13:26:48.217Z"
}