{
  "contractName": "NoteCreation",
  "abi": [
    {
      "constant": false,
      "inputs": [
        {
          "name": "_age",
          "type": "uint8"
        },
        {
          "name": "_metaData",
          "type": "string"
        },
        {
          "name": "_gender",
          "type": "string"
        },
        {
          "name": "_encryptedData",
          "type": "string"
        }
      ],
      "name": "createNote",
      "outputs": [],
      "payable": true,
      "stateMutability": "payable",
      "type": "function"
    },
    {
      "constant": false,
      "inputs": [],
      "name": "withdraw",
      "outputs": [],
      "payable": false,
      "stateMutability": "nonpayable",
      "type": "function"
    },
    {
      "constant": true,
      "inputs": [
        {
          "name": "",
          "type": "uint256"
        }
      ],
      "name": "notes",
      "outputs": [
        {
          "name": "age",
          "type": "uint8"
        },
        {
          "name": "metaData",
          "type": "string"
        },
        {
          "name": "gender",
          "type": "string"
        },
        {
          "name": "encryptedData",
          "type": "string"
        },
        {
          "name": "creator",
          "type": "address"
        }
      ],
      "payable": false,
      "stateMutability": "view",
      "type": "function"
    },
    {
      "constant": true,
      "inputs": [],
      "name": "owner",
      "outputs": [
        {
          "name": "",
          "type": "address"
        }
      ],
      "payable": false,
      "stateMutability": "view",
      "type": "function"
    },
    {
      "constant": false,
      "inputs": [
        {
          "name": "newOwner",
          "type": "address"
        }
      ],
      "name": "transferOwnership",
      "outputs": [],
      "payable": false,
      "stateMutability": "nonpayable",
      "type": "function"
    },
    {
      "anonymous": false,
      "inputs": [
        {
          "indexed": false,
          "name": "noteId",
          "type": "uint256"
        },
        {
          "indexed": false,
          "name": "age",
          "type": "uint8"
        },
        {
          "indexed": false,
          "name": "metaData",
          "type": "string"
        },
        {
          "indexed": false,
          "name": "gender",
          "type": "string"
        },
        {
          "indexed": false,
          "name": "encryptedData",
          "type": "string"
        },
        {
          "indexed": false,
          "name": "creator",
          "type": "address"
        }
      ],
      "name": "NewNote",
      "type": "event"
    },
    {
      "anonymous": false,
      "inputs": [
        {
          "indexed": true,
          "name": "previousOwner",
          "type": "address"
        },
        {
          "indexed": true,
          "name": "newOwner",
          "type": "address"
        }
      ],
      "name": "OwnershipTransferred",
      "type": "event"
    }
  ],
  "bytecode": "0x6060604052336000806101000a81548173ffffffffffffffffffffffffffffffffffffffff021916908373ffffffffffffffffffffffffffffffffffffffff160217905550610cb3806100536000396000f30060606040526004361061006d576000357c0100000000000000000000000000000000000000000000000000000000900463ffffffff168063153ef7cb146100725780633ccfd60b146100c957806361c3a7e6146100de5780638da5cb5b146102e9578063f2fde38b1461033e575b600080fd5b6100c7600480803560ff16906020019091908035906020019082018035906020019190919290803590602001908201803590602001919091929080359060200190820180359060200191909192905050610377565b005b34156100d457600080fd5b6100dc610422565b005b34156100e957600080fd5b6100ff60048080359060200190919050506104f7565b604051808660ff1660ff1681526020018060200180602001806020018573ffffffffffffffffffffffffffffffffffffffff1673ffffffffffffffffffffffffffffffffffffffff1681526020018481038452888181546001816001161561010002031660029004815260200191508054600181600116156101000203166002900480156101ce5780601f106101a3576101008083540402835291602001916101ce565b820191906000526020600020905b8154815290600101906020018083116101b157829003601f168201915b50508481038352878181546001816001161561010002031660029004815260200191508054600181600116156101000203166002900480156102515780601f1061022657610100808354040283529160200191610251565b820191906000526020600020905b81548152906001019060200180831161023457829003601f168201915b50508481038252868181546001816001161561010002031660029004815260200191508054600181600116156101000203166002900480156102d45780601f106102a9576101008083540402835291602001916102d4565b820191906000526020600020905b8154815290600101906020018083116102b757829003601f168201915b50509850505050505050505060405180910390f35b34156102f457600080fd5b6102fc610566565b604051808273ffffffffffffffffffffffffffffffffffffffff1673ffffffffffffffffffffffffffffffffffffffff16815260200191505060405180910390f35b341561034957600080fd5b610375600480803573ffffffffffffffffffffffffffffffffffffffff1690602001909190505061058b565b005b6104198787878080601f01602080910402602001604051908101604052809392919081815260200183838082843782019150505050505086868080601f01602080910402602001604051908101604052809392919081815260200183838082843782019150505050505085858080601f0160208091040260200160405190810160405280939291908181526020018383808284378201915050505050506106e0565b50505050505050565b6000809054906101000a900473ffffffffffffffffffffffffffffffffffffffff1673ffffffffffffffffffffffffffffffffffffffff163373ffffffffffffffffffffffffffffffffffffffff1614151561047d57600080fd5b6000809054906101000a900473ffffffffffffffffffffffffffffffffffffffff1673ffffffffffffffffffffffffffffffffffffffff166108fc3073ffffffffffffffffffffffffffffffffffffffff16319081150290604051600060405180830381858888f1935050505015156104f557600080fd5b565b60018181548110151561050657fe5b90600052602060002090600502016000915090508060000160009054906101000a900460ff16908060010190806002019080600301908060040160009054906101000a900473ffffffffffffffffffffffffffffffffffffffff16905085565b6000809054906101000a900473ffffffffffffffffffffffffffffffffffffffff1681565b6000809054906101000a900473ffffffffffffffffffffffffffffffffffffffff1673ffffffffffffffffffffffffffffffffffffffff163373ffffffffffffffffffffffffffffffffffffffff161415156105e657600080fd5b600073ffffffffffffffffffffffffffffffffffffffff168173ffffffffffffffffffffffffffffffffffffffff161415151561062257600080fd5b8073ffffffffffffffffffffffffffffffffffffffff166000809054906101000a900473ffffffffffffffffffffffffffffffffffffffff1673ffffffffffffffffffffffffffffffffffffffff167f8be0079c531659141344cd1fd0a4f28419497f9722a3daafe3b4186f6b6457e060405160405180910390a3806000806101000a81548173ffffffffffffffffffffffffffffffffffffffff021916908373ffffffffffffffffffffffffffffffffffffffff16021790555050565b600060018080548060010182816106f79190610ade565b9160005260206000209060050201600060a0604051908101604052808a60ff1681526020018981526020018881526020018781526020013373ffffffffffffffffffffffffffffffffffffffff16815250909190915060008201518160000160006101000a81548160ff021916908360ff160217905550602082015181600101908051906020019061078a929190610b10565b5060408201518160020190805190602001906107a7929190610b10565b5060608201518160030190805190602001906107c4929190610b10565b5060808201518160040160006101000a81548173ffffffffffffffffffffffffffffffffffffffff021916908373ffffffffffffffffffffffffffffffffffffffff1602179055505050039050336002600083815260200190815260200160002060006101000a81548173ffffffffffffffffffffffffffffffffffffffff021916908373ffffffffffffffffffffffffffffffffffffffff1602179055506108b66001600360003373ffffffffffffffffffffffffffffffffffffffff1673ffffffffffffffffffffffffffffffffffffffff16815260200190815260200160002054610ac090919063ffffffff16565b600360003373ffffffffffffffffffffffffffffffffffffffff1673ffffffffffffffffffffffffffffffffffffffff168152602001908152602001600020819055507f4473031b750bc879f231ab561fe0e9b0b2a441e364c588b2e02788b724039e16818686868633604051808781526020018660ff1660ff1681526020018060200180602001806020018573ffffffffffffffffffffffffffffffffffffffff1673ffffffffffffffffffffffffffffffffffffffff168152602001848103845288818151815260200191508051906020019080838360005b838110156109ac578082015181840152602081019050610991565b50505050905090810190601f1680156109d95780820380516001836020036101000a031916815260200191505b50848103835287818151815260200191508051906020019080838360005b83811015610a125780820151818401526020810190506109f7565b50505050905090810190601f168015610a3f5780820380516001836020036101000a031916815260200191505b50848103825286818151815260200191508051906020019080838360005b83811015610a78578082015181840152602081019050610a5d565b50505050905090810190601f168015610aa55780820380516001836020036101000a031916815260200191505b50995050505050505050505060405180910390a15050505050565b6000808284019050838110151515610ad457fe5b8091505092915050565b815481835581811511610b0b57600502816005028360005260206000209182019101610b0a9190610b90565b5b505050565b828054600181600116156101000203166002900490600052602060002090601f016020900481019282601f10610b5157805160ff1916838001178555610b7f565b82800160010185558215610b7f579182015b82811115610b7e578251825591602001919060010190610b63565b5b509050610b8c9190610c1a565b5090565b610c1791905b80821115610c1357600080820160006101000a81549060ff0219169055600182016000610bc39190610c3f565b600282016000610bd39190610c3f565b600382016000610be39190610c3f565b6004820160006101000a81549073ffffffffffffffffffffffffffffffffffffffff021916905550600501610b96565b5090565b90565b610c3c91905b80821115610c38576000816000905550600101610c20565b5090565b90565b50805460018160011615610100020316600290046000825580601f10610c655750610c84565b601f016020900490600052602060002090810190610c839190610c1a565b5b505600a165627a7a72305820c6c14f1eba6248059d1062aa08a697210d14d722d6f0ee84c304779a7140e90c0029",
  "source": "pragma solidity ^0.4.18;\n\nimport \"./Payable.sol\";\nimport \"../node_modules/zeppelin-solidity/contracts/math/SafeMath.sol\";\n\ncontract NoteCreation is Payable {\n  // @dev using SafeMath for all uints to avoid over/underflow\n  using SafeMath for uint256;\n\n  event NewNote(uint256 noteId, uint8 age, string metaData, string gender, string encryptedData, address creator);\n\n  // @param a note represents medical data for each patient - eventually patients will be able to publicize and privatize certain aspects of their data\n  struct Note {\n    uint8 age;\n    string metaData;\n    string gender;\n    string encryptedData;\n    address creator;\n  }\n\n  // @param to keep track of all the notes created in this smart contract\n  Note[] public notes;\n\n  // @dev we can find and update the note's owner // owner's note count on creation and on transfer events\n  mapping(uint => address) noteToOwner;\n  mapping(address => uint) ownerNoteCount;\n\n  // @notice we make this function internal because we might want to add extra validations\n  function _createNote(uint8 _age, string _metaData, string _gender, string _encryptedData) internal {\n    uint id = notes.push(Note(_age, _metaData, _gender, _encryptedData, msg.sender)) - 1;\n    noteToOwner[id] = msg.sender;\n    ownerNoteCount[msg.sender] = ownerNoteCount[msg.sender].add(1);\n    NewNote(id, _age, _metaData, _gender, _encryptedData, msg.sender);\n  }\n\n  function createNote(uint8 _age, string _metaData, string _gender, string _encryptedData) external payable {\n    // @user we create a pay what you want structure for medical tokens\n    // @notice we can add require statements in the future about the msg.sender to make sure he or she isn't restricted for some reason here\n    _createNote(_age, _metaData, _gender, _encryptedData);\n  }\n}\n",
  "sourcePath": "/Users/schwartzz8990/Dropbox/Blockchain/myData-medical/app/contracts/NoteCreation.sol",
  "compiler": {
    "name": "solc",
    "version": "0.4.18+commit.9cf6e910.Emscripten.clang"
  },
  "schemaVersion": "1.0.1",
  "updatedAt": "2018-03-19T16:31:59.695Z"
}