{
  "contractName": "NoteCreation",
  "abi": [
    {
      "constant": true,
      "inputs": [
        {
          "name": "",
          "type": "uint256"
        }
      ],
      "name": "notes",
      "outputs": [
        {
          "name": "age",
          "type": "uint8"
        },
        {
          "name": "gender",
          "type": "string"
        },
        {
          "name": "encryptedData",
          "type": "string"
        },
        {
          "name": "creator",
          "type": "address"
        }
      ],
      "payable": false,
      "stateMutability": "view",
      "type": "function"
    },
    {
      "constant": true,
      "inputs": [],
      "name": "owner",
      "outputs": [
        {
          "name": "",
          "type": "address"
        }
      ],
      "payable": false,
      "stateMutability": "view",
      "type": "function"
    },
    {
      "constant": false,
      "inputs": [
        {
          "name": "_age",
          "type": "uint8"
        },
        {
          "name": "_gender",
          "type": "string"
        },
        {
          "name": "_encryptedData",
          "type": "string"
        }
      ],
      "name": "createNote",
      "outputs": [],
      "payable": false,
      "stateMutability": "nonpayable",
      "type": "function"
    },
    {
      "constant": false,
      "inputs": [
        {
          "name": "newOwner",
          "type": "address"
        }
      ],
      "name": "transferOwnership",
      "outputs": [],
      "payable": false,
      "stateMutability": "nonpayable",
      "type": "function"
    },
    {
      "anonymous": false,
      "inputs": [
        {
          "indexed": false,
          "name": "noteId",
          "type": "uint256"
        },
        {
          "indexed": false,
          "name": "age",
          "type": "uint8"
        },
        {
          "indexed": false,
          "name": "gender",
          "type": "string"
        },
        {
          "indexed": false,
          "name": "creator",
          "type": "address"
        }
      ],
      "name": "NewNote",
      "type": "event"
    },
    {
      "anonymous": false,
      "inputs": [
        {
          "indexed": true,
          "name": "previousOwner",
          "type": "address"
        },
        {
          "indexed": true,
          "name": "newOwner",
          "type": "address"
        }
      ],
      "name": "OwnershipTransferred",
      "type": "event"
    }
  ],
  "bytecode": "0x6060604052336000806101000a81548173ffffffffffffffffffffffffffffffffffffffff021916908373ffffffffffffffffffffffffffffffffffffffff1602179055506109dc806100536000396000f300606060405260043610610062576000357c0100000000000000000000000000000000000000000000000000000000900463ffffffff16806361c3a7e6146100675780638da5cb5b146101e9578063d5c7f7391461023e578063f2fde38b146102ea575b600080fd5b341561007257600080fd5b6100886004808035906020019091905050610323565b604051808560ff1660ff16815260200180602001806020018473ffffffffffffffffffffffffffffffffffffffff1673ffffffffffffffffffffffffffffffffffffffff1681526020018381038352868181546001816001161561010002031660029004815260200191508054600181600116156101000203166002900480156101535780601f1061012857610100808354040283529160200191610153565b820191906000526020600020905b81548152906001019060200180831161013657829003601f168201915b50508381038252858181546001816001161561010002031660029004815260200191508054600181600116156101000203166002900480156101d65780601f106101ab576101008083540402835291602001916101d6565b820191906000526020600020905b8154815290600101906020018083116101b957829003601f168201915b5050965050505050505060405180910390f35b34156101f457600080fd5b6101fc61038d565b604051808273ffffffffffffffffffffffffffffffffffffffff1673ffffffffffffffffffffffffffffffffffffffff16815260200191505060405180910390f35b341561024957600080fd5b6102e8600480803560ff1690602001909190803590602001908201803590602001908080601f0160208091040260200160405190810160405280939291908181526020018383808284378201915050505050509190803590602001908201803590602001908080601f016020809104026020016040519081016040528093929190818152602001838380828437820191505050505050919050506103b2565b005b34156102f557600080fd5b610321600480803573ffffffffffffffffffffffffffffffffffffffff169060200190919050506103c2565b005b60018181548110151561033257fe5b90600052602060002090600402016000915090508060000160009054906101000a900460ff1690806001019080600201908060030160009054906101000a900473ffffffffffffffffffffffffffffffffffffffff16905084565b6000809054906101000a900473ffffffffffffffffffffffffffffffffffffffff1681565b6103bd838383610517565b505050565b6000809054906101000a900473ffffffffffffffffffffffffffffffffffffffff1673ffffffffffffffffffffffffffffffffffffffff163373ffffffffffffffffffffffffffffffffffffffff1614151561041d57600080fd5b600073ffffffffffffffffffffffffffffffffffffffff168173ffffffffffffffffffffffffffffffffffffffff161415151561045957600080fd5b8073ffffffffffffffffffffffffffffffffffffffff166000809054906101000a900473ffffffffffffffffffffffffffffffffffffffff1673ffffffffffffffffffffffffffffffffffffffff167f8be0079c531659141344cd1fd0a4f28419497f9722a3daafe3b4186f6b6457e060405160405180910390a3806000806101000a81548173ffffffffffffffffffffffffffffffffffffffff021916908373ffffffffffffffffffffffffffffffffffffffff16021790555050565b6000600180805480600101828161052e9190610817565b916000526020600020906004020160006080604051908101604052808960ff1681526020018881526020018781526020013373ffffffffffffffffffffffffffffffffffffffff16815250909190915060008201518160000160006101000a81548160ff021916908360ff16021790555060208201518160010190805190602001906105bb929190610849565b5060408201518160020190805190602001906105d8929190610849565b5060608201518160030160006101000a81548173ffffffffffffffffffffffffffffffffffffffff021916908373ffffffffffffffffffffffffffffffffffffffff1602179055505050039050336002600083815260200190815260200160002060006101000a81548173ffffffffffffffffffffffffffffffffffffffff021916908373ffffffffffffffffffffffffffffffffffffffff1602179055506106ca6001600360003373ffffffffffffffffffffffffffffffffffffffff1673ffffffffffffffffffffffffffffffffffffffff168152602001908152602001600020546107f990919063ffffffff16565b600360003373ffffffffffffffffffffffffffffffffffffffff1673ffffffffffffffffffffffffffffffffffffffff168152602001908152602001600020819055507f9f7a8dbddd308f6b93d25d5f2b42c1e464c00db67412db62532731e2a74a32fb81858533604051808581526020018460ff1660ff168152602001806020018373ffffffffffffffffffffffffffffffffffffffff1673ffffffffffffffffffffffffffffffffffffffff168152602001828103825284818151815260200191508051906020019080838360005b838110156107b657808201518184015260208101905061079b565b50505050905090810190601f1680156107e35780820380516001836020036101000a031916815260200191505b509550505050505060405180910390a150505050565b600080828401905083811015151561080d57fe5b8091505092915050565b8154818355818115116108445760040281600402836000526020600020918201910161084391906108c9565b5b505050565b828054600181600116156101000203166002900490600052602060002090601f016020900481019282601f1061088a57805160ff19168380011785556108b8565b828001600101855582156108b8579182015b828111156108b757825182559160200191906001019061089c565b5b5090506108c59190610943565b5090565b61094091905b8082111561093c57600080820160006101000a81549060ff02191690556001820160006108fc9190610968565b60028201600061090c9190610968565b6003820160006101000a81549073ffffffffffffffffffffffffffffffffffffffff0219169055506004016108cf565b5090565b90565b61096591905b80821115610961576000816000905550600101610949565b5090565b90565b50805460018160011615610100020316600290046000825580601f1061098e57506109ad565b601f0160209004906000526020600020908101906109ac9190610943565b5b505600a165627a7a72305820a0988335f0882729b7f04d1081de4336c6ab7eebcca1411efbf278aa6790b0d80029",
  "source": "pragma solidity ^0.4.18;\n\nimport \"../node_modules/zeppelin-solidity/contracts/ownership/Ownable.sol\";\nimport \"../node_modules/zeppelin-solidity/contracts/math/SafeMath.sol\";\n\ncontract NoteCreation is Ownable {\n  // @dev using SafeMath for all uints to avoid over/underflow\n  using SafeMath for uint256;\n\n  event NewNote(uint256 noteId, uint8 age, string gender, address creator);\n\n  // @param a note represents medical data for each patient - eventually patients will be able to publicize and privatize certain aspects of their data\n  struct Note {\n    uint8 age;\n    string gender;\n    string encryptedData;\n    address creator;\n  }\n\n  // @param to keep track of all the notes created in this smart contract\n  Note[] public notes;\n\n  // @dev we can find and update the note's owner // owner's note count on creation and on transfer events\n  mapping (uint => address) noteToOwner;\n  mapping(address => uint) ownerNoteCount;\n\n  // @notice we make this function internal because we might want to add extra validations\n  function _createNote(uint8 _age, string _gender, string _encryptedData) internal {\n    uint id = notes.push(Note(_age, _gender, _encryptedData, msg.sender)) - 1;\n    noteToOwner[id] = msg.sender;\n    ownerNoteCount[msg.sender] = ownerNoteCount[msg.sender].add(1);\n    NewNote(id, _age, _gender, msg.sender);\n  }\n\n  function createNote(uint8 _age, string _gender, string _encryptedData) public {\n    // @notice we can add require statements in the future about the msg.sender to make sure he or she isn't restricted for some reason here\n    _createNote(_age, _gender, _encryptedData);\n  }\n}\n",
  "sourcePath": "/Users/schwartzz8990/Dropbox/Blockchain/blockchain-email/app/contracts/NoteCreation.sol",
  "compiler": {
    "name": "solc",
    "version": "0.4.18+commit.9cf6e910.Emscripten.clang"
  },
  "schemaVersion": "1.0.1",
  "updatedAt": "2018-03-11T20:28:15.439Z"
}