{
  "contractName": "NoteOwnership",
  "abi": [
    {
      "constant": false,
      "inputs": [
        {
          "name": "_to",
          "type": "address"
        },
        {
          "name": "_tokenId",
          "type": "uint256"
        }
      ],
      "name": "approve",
      "outputs": [],
      "payable": false,
      "stateMutability": "nonpayable",
      "type": "function"
    },
    {
      "constant": false,
      "inputs": [],
      "name": "withdraw",
      "outputs": [],
      "payable": false,
      "stateMutability": "nonpayable",
      "type": "function"
    },
    {
      "constant": true,
      "inputs": [
        {
          "name": "_owner",
          "type": "address"
        }
      ],
      "name": "getNotesByOwner",
      "outputs": [
        {
          "name": "",
          "type": "uint256[]"
        }
      ],
      "payable": false,
      "stateMutability": "view",
      "type": "function"
    },
    {
      "constant": true,
      "inputs": [
        {
          "name": "",
          "type": "uint256"
        }
      ],
      "name": "notes",
      "outputs": [
        {
          "name": "age",
          "type": "uint8"
        },
        {
          "name": "gender",
          "type": "string"
        },
        {
          "name": "encryptedData",
          "type": "string"
        },
        {
          "name": "creator",
          "type": "address"
        }
      ],
      "payable": false,
      "stateMutability": "view",
      "type": "function"
    },
    {
      "constant": true,
      "inputs": [
        {
          "name": "_tokenId",
          "type": "uint256"
        }
      ],
      "name": "ownerOf",
      "outputs": [
        {
          "name": "_owner",
          "type": "address"
        }
      ],
      "payable": false,
      "stateMutability": "view",
      "type": "function"
    },
    {
      "constant": true,
      "inputs": [
        {
          "name": "_owner",
          "type": "address"
        }
      ],
      "name": "balanceOf",
      "outputs": [
        {
          "name": "_balance",
          "type": "uint256"
        }
      ],
      "payable": false,
      "stateMutability": "view",
      "type": "function"
    },
    {
      "constant": true,
      "inputs": [
        {
          "name": "_tokenId",
          "type": "uint256"
        }
      ],
      "name": "isApproved",
      "outputs": [
        {
          "name": "_approved",
          "type": "bool"
        }
      ],
      "payable": false,
      "stateMutability": "view",
      "type": "function"
    },
    {
      "constant": true,
      "inputs": [],
      "name": "owner",
      "outputs": [
        {
          "name": "",
          "type": "address"
        }
      ],
      "payable": false,
      "stateMutability": "view",
      "type": "function"
    },
    {
      "constant": false,
      "inputs": [
        {
          "name": "_to",
          "type": "address"
        },
        {
          "name": "_tokenId",
          "type": "uint256"
        }
      ],
      "name": "transfer",
      "outputs": [],
      "payable": false,
      "stateMutability": "nonpayable",
      "type": "function"
    },
    {
      "constant": true,
      "inputs": [
        {
          "name": "_noteId",
          "type": "uint256"
        }
      ],
      "name": "getNote",
      "outputs": [
        {
          "name": "age",
          "type": "uint8"
        },
        {
          "name": "gender",
          "type": "string"
        },
        {
          "name": "encryptedData",
          "type": "string"
        },
        {
          "name": "creator",
          "type": "address"
        }
      ],
      "payable": false,
      "stateMutability": "view",
      "type": "function"
    },
    {
      "constant": false,
      "inputs": [
        {
          "name": "_tokenId",
          "type": "uint256"
        }
      ],
      "name": "takeOwnership",
      "outputs": [],
      "payable": false,
      "stateMutability": "nonpayable",
      "type": "function"
    },
    {
      "constant": false,
      "inputs": [
        {
          "name": "_age",
          "type": "uint8"
        },
        {
          "name": "_gender",
          "type": "string"
        },
        {
          "name": "_encryptedData",
          "type": "string"
        }
      ],
      "name": "createNote",
      "outputs": [],
      "payable": true,
      "stateMutability": "payable",
      "type": "function"
    },
    {
      "constant": false,
      "inputs": [
        {
          "name": "newOwner",
          "type": "address"
        }
      ],
      "name": "transferOwnership",
      "outputs": [],
      "payable": false,
      "stateMutability": "nonpayable",
      "type": "function"
    },
    {
      "anonymous": false,
      "inputs": [
        {
          "indexed": false,
          "name": "_me",
          "type": "address"
        },
        {
          "indexed": false,
          "name": "_tokenId",
          "type": "uint256"
        },
        {
          "indexed": false,
          "name": "approved",
          "type": "bool"
        }
      ],
      "name": "Check",
      "type": "event"
    },
    {
      "anonymous": false,
      "inputs": [
        {
          "indexed": false,
          "name": "noteId",
          "type": "uint256"
        },
        {
          "indexed": false,
          "name": "age",
          "type": "uint8"
        },
        {
          "indexed": false,
          "name": "gender",
          "type": "string"
        },
        {
          "indexed": false,
          "name": "creator",
          "type": "address"
        }
      ],
      "name": "NewNote",
      "type": "event"
    },
    {
      "anonymous": false,
      "inputs": [
        {
          "indexed": true,
          "name": "previousOwner",
          "type": "address"
        },
        {
          "indexed": true,
          "name": "newOwner",
          "type": "address"
        }
      ],
      "name": "OwnershipTransferred",
      "type": "event"
    },
    {
      "anonymous": false,
      "inputs": [
        {
          "indexed": true,
          "name": "_from",
          "type": "address"
        },
        {
          "indexed": true,
          "name": "_to",
          "type": "address"
        },
        {
          "indexed": false,
          "name": "_tokenId",
          "type": "uint256"
        }
      ],
      "name": "Transfer",
      "type": "event"
    },
    {
      "anonymous": false,
      "inputs": [
        {
          "indexed": true,
          "name": "_owner",
          "type": "address"
        },
        {
          "indexed": true,
          "name": "_approved",
          "type": "address"
        },
        {
          "indexed": false,
          "name": "_tokenId",
          "type": "uint256"
        }
      ],
      "name": "Approval",
      "type": "event"
    }
  ],
  "bytecode": "0x6060604052336000806101000a81548173ffffffffffffffffffffffffffffffffffffffff021916908373ffffffffffffffffffffffffffffffffffffffff1602179055506117c7806100536000396000f3006060604052600436106100c5576000357c0100000000000000000000000000000000000000000000000000000000900463ffffffff168063095ea7b3146100ca5780633ccfd60b1461010c578063570a3b271461012157806361c3a7e6146101af5780636352211e1461033157806370a08231146103945780637910867b146103e15780638da5cb5b1461041c578063a9059cbb14610471578063a965a941146104b3578063b2e6ceeb146105fb578063d5c7f7391461061e578063f2fde38b14610661575b600080fd5b34156100d557600080fd5b61010a600480803573ffffffffffffffffffffffffffffffffffffffff1690602001909190803590602001909190505061069a565b005b341561011757600080fd5b61011f610807565b005b341561012c57600080fd5b610158600480803573ffffffffffffffffffffffffffffffffffffffff169060200190919050506108dc565b6040518080602001828103825283818151815260200191508051906020019060200280838360005b8381101561019b578082015181840152602081019050610180565b505050509050019250505060405180910390f35b34156101ba57600080fd5b6101d06004808035906020019091905050610a0a565b604051808560ff1660ff16815260200180602001806020018473ffffffffffffffffffffffffffffffffffffffff1673ffffffffffffffffffffffffffffffffffffffff16815260200183810383528681815460018160011615610100020316600290048152602001915080546001816001161561010002031660029004801561029b5780601f106102705761010080835404028352916020019161029b565b820191906000526020600020905b81548152906001019060200180831161027e57829003601f168201915b505083810382528581815460018160011615610100020316600290048152602001915080546001816001161561010002031660029004801561031e5780601f106102f35761010080835404028352916020019161031e565b820191906000526020600020905b81548152906001019060200180831161030157829003601f168201915b5050965050505050505060405180910390f35b341561033c57600080fd5b6103526004808035906020019091905050610a74565b604051808273ffffffffffffffffffffffffffffffffffffffff1673ffffffffffffffffffffffffffffffffffffffff16815260200191505060405180910390f35b341561039f57600080fd5b6103cb600480803573ffffffffffffffffffffffffffffffffffffffff16906020019091905050610ab1565b6040518082815260200191505060405180910390f35b34156103ec57600080fd5b6104026004808035906020019091905050610afa565b604051808215151515815260200191505060405180910390f35b341561042757600080fd5b61042f610b65565b604051808273ffffffffffffffffffffffffffffffffffffffff1673ffffffffffffffffffffffffffffffffffffffff16815260200191505060405180910390f35b341561047c57600080fd5b6104b1600480803573ffffffffffffffffffffffffffffffffffffffff16906020019091908035906020019091905050610b8a565b005b34156104be57600080fd5b6104d46004808035906020019091905050610bdd565b604051808560ff1660ff16815260200180602001806020018473ffffffffffffffffffffffffffffffffffffffff1673ffffffffffffffffffffffffffffffffffffffff168152602001838103835286818151815260200191508051906020019080838360005b8381101561055657808201518184015260208101905061053b565b50505050905090810190601f1680156105835780820380516001836020036101000a031916815260200191505b50838103825285818151815260200191508051906020019080838360005b838110156105bc5780820151818401526020810190506105a1565b50505050905090810190601f1680156105e95780820380516001836020036101000a031916815260200191505b50965050505050505060405180910390f35b341561060657600080fd5b61061c6004808035906020019091905050610d92565b005b61065f600480803560ff1690602001909190803590602001908201803590602001919091929080359060200190820180359060200191909192905050610e25565b005b341561066c57600080fd5b610698600480803573ffffffffffffffffffffffffffffffffffffffff16906020019091905050610e9b565b005b803373ffffffffffffffffffffffffffffffffffffffff166106bb82610a74565b73ffffffffffffffffffffffffffffffffffffffff161415156106dd57600080fd5b8273ffffffffffffffffffffffffffffffffffffffff166004600084815260200190815260200160002060009054906101000a900473ffffffffffffffffffffffffffffffffffffffff1673ffffffffffffffffffffffffffffffffffffffff161415151561074b57600080fd5b826004600084815260200190815260200160002060006101000a81548173ffffffffffffffffffffffffffffffffffffffff021916908373ffffffffffffffffffffffffffffffffffffffff1602179055508273ffffffffffffffffffffffffffffffffffffffff163373ffffffffffffffffffffffffffffffffffffffff167f8c5be1e5ebec7d5bd14f71427d1e84f3dd0314c0f7b2291e5b200ac8c7c3b925846040518082815260200191505060405180910390a3505050565b6000809054906101000a900473ffffffffffffffffffffffffffffffffffffffff1673ffffffffffffffffffffffffffffffffffffffff163373ffffffffffffffffffffffffffffffffffffffff1614151561086257600080fd5b6000809054906101000a900473ffffffffffffffffffffffffffffffffffffffff1673ffffffffffffffffffffffffffffffffffffffff166108fc3073ffffffffffffffffffffffffffffffffffffffff16319081150290604051600060405180830381858888f1935050505015156108da57600080fd5b565b6108e46115da565b6108ec6115da565b600080600360008673ffffffffffffffffffffffffffffffffffffffff1673ffffffffffffffffffffffffffffffffffffffff1681526020019081526020016000205460405180591061093c5750595b9080825280602002602001820160405250925060009150600090505b6001805490508110156109ff578473ffffffffffffffffffffffffffffffffffffffff166002600083815260200190815260200160002060009054906101000a900473ffffffffffffffffffffffffffffffffffffffff1673ffffffffffffffffffffffffffffffffffffffff1614156109f2578083838151811015156109db57fe5b906020019060200201818152505081806001019250505b8080600101915050610958565b829350505050919050565b600181815481101515610a1957fe5b90600052602060002090600402016000915090508060000160009054906101000a900460ff1690806001019080600201908060030160009054906101000a900473ffffffffffffffffffffffffffffffffffffffff16905084565b60006002600083815260200190815260200160002060009054906101000a900473ffffffffffffffffffffffffffffffffffffffff169050919050565b6000600360008373ffffffffffffffffffffffffffffffffffffffff1673ffffffffffffffffffffffffffffffffffffffff168152602001908152602001600020549050919050565b60003373ffffffffffffffffffffffffffffffffffffffff166004600084815260200190815260200160002060009054906101000a900473ffffffffffffffffffffffffffffffffffffffff1673ffffffffffffffffffffffffffffffffffffffff16149050919050565b6000809054906101000a900473ffffffffffffffffffffffffffffffffffffffff1681565b803373ffffffffffffffffffffffffffffffffffffffff16610bab82610a74565b73ffffffffffffffffffffffffffffffffffffffff16141515610bcd57600080fd5b610bd8338484610ff0565b505050565b6000610be76115ee565b610bef6115ee565b600080600186815481101515610c0157fe5b906000526020600020906004020190508060000160009054906101000a900460ff169450806001018054600181600116156101000203166002900480601f016020809104026020016040519081016040528092919081815260200182805460018160011615610100020316600290048015610cbd5780601f10610c9257610100808354040283529160200191610cbd565b820191906000526020600020905b815481529060010190602001808311610ca057829003601f168201915b50505050509350806002018054600181600116156101000203166002900480601f016020809104026020016040519081016040528092919081815260200182805460018160011615610100020316600290048015610d5c5780601f10610d3157610100808354040283529160200191610d5c565b820191906000526020600020905b815481529060010190602001808311610d3f57829003601f168201915b505050505092508060030160009054906101000a900473ffffffffffffffffffffffffffffffffffffffff169150509193509193565b60003373ffffffffffffffffffffffffffffffffffffffff166004600084815260200190815260200160002060009054906101000a900473ffffffffffffffffffffffffffffffffffffffff1673ffffffffffffffffffffffffffffffffffffffff16141515610e0157600080fd5b610e0a82610a74565b9050610e1681836111d8565b610e21813384610ff0565b5050565b610e948585858080601f01602080910402602001604051908101604052809392919081815260200183838082843782019150505050505084848080601f0160208091040260200160405190810160405280939291908181526020018383808284378201915050505050506112c1565b5050505050565b6000809054906101000a900473ffffffffffffffffffffffffffffffffffffffff1673ffffffffffffffffffffffffffffffffffffffff163373ffffffffffffffffffffffffffffffffffffffff16141515610ef657600080fd5b600073ffffffffffffffffffffffffffffffffffffffff168173ffffffffffffffffffffffffffffffffffffffff1614151515610f3257600080fd5b8073ffffffffffffffffffffffffffffffffffffffff166000809054906101000a900473ffffffffffffffffffffffffffffffffffffffff1673ffffffffffffffffffffffffffffffffffffffff167f8be0079c531659141344cd1fd0a4f28419497f9722a3daafe3b4186f6b6457e060405160405180910390a3806000806101000a81548173ffffffffffffffffffffffffffffffffffffffff021916908373ffffffffffffffffffffffffffffffffffffffff16021790555050565b6110436001600360008573ffffffffffffffffffffffffffffffffffffffff1673ffffffffffffffffffffffffffffffffffffffff168152602001908152602001600020546115a390919063ffffffff16565b600360008473ffffffffffffffffffffffffffffffffffffffff1673ffffffffffffffffffffffffffffffffffffffff168152602001908152602001600020819055506110d96001600360003373ffffffffffffffffffffffffffffffffffffffff1673ffffffffffffffffffffffffffffffffffffffff168152602001908152602001600020546115c190919063ffffffff16565b600360003373ffffffffffffffffffffffffffffffffffffffff1673ffffffffffffffffffffffffffffffffffffffff16815260200190815260200160002081905550816002600083815260200190815260200160002060006101000a81548173ffffffffffffffffffffffffffffffffffffffff021916908373ffffffffffffffffffffffffffffffffffffffff1602179055508173ffffffffffffffffffffffffffffffffffffffff168373ffffffffffffffffffffffffffffffffffffffff167fddf252ad1be2c89b69c2b068fc378daa952ba7f163c4a11628f55a4df523b3ef836040518082815260200191505060405180910390a3505050565b8173ffffffffffffffffffffffffffffffffffffffff166111f882610a74565b73ffffffffffffffffffffffffffffffffffffffff1614151561121a57600080fd5b60006004600083815260200190815260200160002060006101000a81548173ffffffffffffffffffffffffffffffffffffffff021916908373ffffffffffffffffffffffffffffffffffffffff16021790555060008273ffffffffffffffffffffffffffffffffffffffff167f8c5be1e5ebec7d5bd14f71427d1e84f3dd0314c0f7b2291e5b200ac8c7c3b925836040518082815260200191505060405180910390a35050565b600060018080548060010182816112d89190611602565b916000526020600020906004020160006080604051908101604052808960ff1681526020018881526020018781526020013373ffffffffffffffffffffffffffffffffffffffff16815250909190915060008201518160000160006101000a81548160ff021916908360ff1602179055506020820151816001019080519060200190611365929190611634565b506040820151816002019080519060200190611382929190611634565b5060608201518160030160006101000a81548173ffffffffffffffffffffffffffffffffffffffff021916908373ffffffffffffffffffffffffffffffffffffffff1602179055505050039050336002600083815260200190815260200160002060006101000a81548173ffffffffffffffffffffffffffffffffffffffff021916908373ffffffffffffffffffffffffffffffffffffffff1602179055506114746001600360003373ffffffffffffffffffffffffffffffffffffffff1673ffffffffffffffffffffffffffffffffffffffff168152602001908152602001600020546115a390919063ffffffff16565b600360003373ffffffffffffffffffffffffffffffffffffffff1673ffffffffffffffffffffffffffffffffffffffff168152602001908152602001600020819055507f9f7a8dbddd308f6b93d25d5f2b42c1e464c00db67412db62532731e2a74a32fb81858533604051808581526020018460ff1660ff168152602001806020018373ffffffffffffffffffffffffffffffffffffffff1673ffffffffffffffffffffffffffffffffffffffff168152602001828103825284818151815260200191508051906020019080838360005b83811015611560578082015181840152602081019050611545565b50505050905090810190601f16801561158d5780820380516001836020036101000a031916815260200191505b509550505050505060405180910390a150505050565b60008082840190508381101515156115b757fe5b8091505092915050565b60008282111515156115cf57fe5b818303905092915050565b602060405190810160405280600081525090565b602060405190810160405280600081525090565b81548183558181151161162f5760040281600402836000526020600020918201910161162e91906116b4565b5b505050565b828054600181600116156101000203166002900490600052602060002090601f016020900481019282601f1061167557805160ff19168380011785556116a3565b828001600101855582156116a3579182015b828111156116a2578251825591602001919060010190611687565b5b5090506116b0919061172e565b5090565b61172b91905b8082111561172757600080820160006101000a81549060ff02191690556001820160006116e79190611753565b6002820160006116f79190611753565b6003820160006101000a81549073ffffffffffffffffffffffffffffffffffffffff0219169055506004016116ba565b5090565b90565b61175091905b8082111561174c576000816000905550600101611734565b5090565b90565b50805460018160011615610100020316600290046000825580601f106117795750611798565b601f016020900490600052602060002090810190611797919061172e565b5b505600a165627a7a7230582080257740157629fe39bc1bd777b433313525adcc38c5030074c332f48c37da2b0029",
  "source": "pragma solidity ^0.4.18;\n\nimport \"./PatientNotes.sol\";\nimport \"../node_modules/zeppelin-solidity/contracts/token/ERC721/ERC721.sol\";\nimport \"../node_modules/zeppelin-solidity/contracts/math/SafeMath.sol\";\n\ncontract NoteOwnership is ERC721, PatientNotes {\n  using SafeMath for uint256;\n\n  event Check(address _me, uint _tokenId, bool approved);\n\n  // Mapping from token ID to approved address\n  mapping (uint256 => address) private tokenApprovals;\n\n  /**\n  * @dev Guarantees msg.sender is owner of the given token\n  * @param _tokenId uint256 ID of the token to validate its ownership belongs to msg.sender\n  */\n  modifier onlyOwnerOf(uint256 _tokenId) {\n    require(ownerOf(_tokenId) == msg.sender);\n    _;\n  }\n\n  /**\n  * @dev Gets the balance of the specified address\n  * @param _owner address to query the balance of\n  * @return uint256 representing the amount owned by the passed address\n  */\n  function balanceOf(address _owner) public view returns (uint256 _balance) {\n    return ownerNoteCount[_owner];\n  }\n\n  /**\n  * @dev Gets the list of tokens owned by a given address\n  * @param _owner address to query the tokens of\n  * @return uint256[] representing the list of tokens owned by the passed address\n  */\n  function ownerOf(uint256 _tokenId) public view returns (address _owner) {\n    return noteToOwner[_tokenId];\n  }\n\n  /**\n  * @dev Abstracts the transfer logic into its own function to use elsewhere\n  * @param _from address sending token, _to address receiving the token with token _tokenId\n  */\n  function _transfer(address _from, address _to, uint256 _tokenId) private {\n    ownerNoteCount[_to] = ownerNoteCount[_to].add(1);\n    ownerNoteCount[msg.sender] = ownerNoteCount[msg.sender].sub(1);\n    noteToOwner[_tokenId] = _to;\n    Transfer(_from, _to, _tokenId);\n  }\n\n  /**\n  * @dev implements the public transfer function\n  */\n  function transfer(address _to, uint256 _tokenId) public onlyOwnerOf(_tokenId) {\n    _transfer(msg.sender, _to, _tokenId);\n  }\n\n  /**\n  * @dev Approves an address to claim for the ownership of the given token ID\n  * @param _to address to be approved for the given token ID\n  * @param _tokenId uint256 ID of the token to be approved\n  */\n  function approve(address _to, uint256 _tokenId) public onlyOwnerOf(_tokenId) {\n    require(tokenApprovals[_tokenId] != _to);\n    tokenApprovals[_tokenId] = _to;\n    Approval(msg.sender, _to, _tokenId);\n  }\n\n  /**\n  * @dev Allows a user to see if he or she is approved for a token before attempting to claim ownership\n  * @param _tokenId uint the token potentially approved to own\n  * @notice - we don't allow people to check if others are approved to take tokens, but could be changed in the future\n  */\n  function isApproved(uint _tokenId) public view returns (bool _approved) {\n    return tokenApprovals[_tokenId] == msg.sender;\n  }\n  /**\n  * @dev Claims the ownership of a given token ID\n  * @param _tokenId uint256 ID of the token being claimed by the msg.sender\n  */\n  function takeOwnership(uint256 _tokenId) public {\n    require(tokenApprovals[_tokenId] == msg.sender);\n    address owner = ownerOf(_tokenId);\n    clearApproval(owner, _tokenId);\n    _transfer(owner, msg.sender, _tokenId);\n  }\n\n  /**\n  * @dev Internal function to clear current approval of a given token ID\n  * @param _tokenId uint256 ID of the token to be transferred\n  */\n  function clearApproval(address _owner, uint256 _tokenId) private {\n    require(ownerOf(_tokenId) == _owner);\n    tokenApprovals[_tokenId] = 0;\n    Approval(_owner, 0, _tokenId);\n  }\n}\n",
  "sourcePath": "/Users/schwartzz8990/Dropbox/Blockchain/myData-medical/app/contracts/NoteOwnership.sol",
  "compiler": {
    "name": "solc",
    "version": "0.4.18+commit.9cf6e910.Emscripten.clang"
  },
  "schemaVersion": "1.0.1",
  "updatedAt": "2018-03-15T16:02:50.081Z"
}