{
  "contractName": "PatientNotes",
  "abi": [
    {
      "constant": false,
      "inputs": [
        {
          "name": "_age",
          "type": "uint8"
        },
        {
          "name": "_metaData",
          "type": "string"
        },
        {
          "name": "_gender",
          "type": "string"
        },
        {
          "name": "_encryptedData",
          "type": "string"
        }
      ],
      "name": "createNote",
      "outputs": [],
      "payable": true,
      "stateMutability": "payable",
      "type": "function"
    },
    {
      "constant": false,
      "inputs": [],
      "name": "withdraw",
      "outputs": [],
      "payable": false,
      "stateMutability": "nonpayable",
      "type": "function"
    },
    {
      "constant": true,
      "inputs": [
        {
          "name": "_owner",
          "type": "address"
        }
      ],
      "name": "getNotesByOwner",
      "outputs": [
        {
          "name": "",
          "type": "uint256[]"
        }
      ],
      "payable": false,
      "stateMutability": "view",
      "type": "function"
    },
    {
      "constant": true,
      "inputs": [
        {
          "name": "",
          "type": "uint256"
        }
      ],
      "name": "notes",
      "outputs": [
        {
          "name": "age",
          "type": "uint8"
        },
        {
          "name": "metaData",
          "type": "string"
        },
        {
          "name": "gender",
          "type": "string"
        },
        {
          "name": "encryptedData",
          "type": "string"
        },
        {
          "name": "creator",
          "type": "address"
        }
      ],
      "payable": false,
      "stateMutability": "view",
      "type": "function"
    },
    {
      "constant": true,
      "inputs": [],
      "name": "owner",
      "outputs": [
        {
          "name": "",
          "type": "address"
        }
      ],
      "payable": false,
      "stateMutability": "view",
      "type": "function"
    },
    {
      "constant": true,
      "inputs": [
        {
          "name": "_noteId",
          "type": "uint256"
        }
      ],
      "name": "getNote",
      "outputs": [
        {
          "name": "age",
          "type": "uint8"
        },
        {
          "name": "noteId",
          "type": "uint256"
        },
        {
          "name": "metaData",
          "type": "string"
        },
        {
          "name": "gender",
          "type": "string"
        },
        {
          "name": "encryptedData",
          "type": "string"
        },
        {
          "name": "creator",
          "type": "address"
        }
      ],
      "payable": false,
      "stateMutability": "view",
      "type": "function"
    },
    {
      "constant": false,
      "inputs": [
        {
          "name": "newOwner",
          "type": "address"
        }
      ],
      "name": "transferOwnership",
      "outputs": [],
      "payable": false,
      "stateMutability": "nonpayable",
      "type": "function"
    },
    {
      "anonymous": false,
      "inputs": [
        {
          "indexed": false,
          "name": "noteId",
          "type": "uint256"
        },
        {
          "indexed": false,
          "name": "age",
          "type": "uint8"
        },
        {
          "indexed": false,
          "name": "metaData",
          "type": "string"
        },
        {
          "indexed": false,
          "name": "gender",
          "type": "string"
        },
        {
          "indexed": false,
          "name": "encryptedData",
          "type": "string"
        },
        {
          "indexed": false,
          "name": "creator",
          "type": "address"
        }
      ],
      "name": "NewNote",
      "type": "event"
    },
    {
      "anonymous": false,
      "inputs": [
        {
          "indexed": true,
          "name": "previousOwner",
          "type": "address"
        },
        {
          "indexed": true,
          "name": "newOwner",
          "type": "address"
        }
      ],
      "name": "OwnershipTransferred",
      "type": "event"
    }
  ],
  "bytecode": "0x6060604052336000806101000a81548173ffffffffffffffffffffffffffffffffffffffff021916908373ffffffffffffffffffffffffffffffffffffffff1602179055506112ca806100536000396000f300606060405260043610610083576000357c0100000000000000000000000000000000000000000000000000000000900463ffffffff168063153ef7cb146100885780633ccfd60b146100df578063570a3b27146100f457806361c3a7e6146101825780638da5cb5b1461038d578063a965a941146103e2578063f2fde38b1461059d575b600080fd5b6100dd600480803560ff169060200190919080359060200190820180359060200191909192908035906020019082018035906020019190919290803590602001908201803590602001919091929050506105d6565b005b34156100ea57600080fd5b6100f2610681565b005b34156100ff57600080fd5b61012b600480803573ffffffffffffffffffffffffffffffffffffffff16906020019091905050610756565b6040518080602001828103825283818151815260200191508051906020019060200280838360005b8381101561016e578082015181840152602081019050610153565b505050509050019250505060405180910390f35b341561018d57600080fd5b6101a36004808035906020019091905050610884565b604051808660ff1660ff1681526020018060200180602001806020018573ffffffffffffffffffffffffffffffffffffffff1673ffffffffffffffffffffffffffffffffffffffff1681526020018481038452888181546001816001161561010002031660029004815260200191508054600181600116156101000203166002900480156102725780601f1061024757610100808354040283529160200191610272565b820191906000526020600020905b81548152906001019060200180831161025557829003601f168201915b50508481038352878181546001816001161561010002031660029004815260200191508054600181600116156101000203166002900480156102f55780601f106102ca576101008083540402835291602001916102f5565b820191906000526020600020905b8154815290600101906020018083116102d857829003601f168201915b50508481038252868181546001816001161561010002031660029004815260200191508054600181600116156101000203166002900480156103785780601f1061034d57610100808354040283529160200191610378565b820191906000526020600020905b81548152906001019060200180831161035b57829003601f168201915b50509850505050505050505060405180910390f35b341561039857600080fd5b6103a06108f3565b604051808273ffffffffffffffffffffffffffffffffffffffff1673ffffffffffffffffffffffffffffffffffffffff16815260200191505060405180910390f35b34156103ed57600080fd5b6104036004808035906020019091905050610918565b604051808760ff1660ff1681526020018681526020018060200180602001806020018573ffffffffffffffffffffffffffffffffffffffff1673ffffffffffffffffffffffffffffffffffffffff168152602001848103845288818151815260200191508051906020019080838360005b8381101561048f578082015181840152602081019050610474565b50505050905090810190601f1680156104bc5780820380516001836020036101000a031916815260200191505b50848103835287818151815260200191508051906020019080838360005b838110156104f55780820151818401526020810190506104da565b50505050905090810190601f1680156105225780820380516001836020036101000a031916815260200191505b50848103825286818151815260200191508051906020019080838360005b8381101561055b578082015181840152602081019050610540565b50505050905090810190601f1680156105885780820380516001836020036101000a031916815260200191505b50995050505050505050505060405180910390f35b34156105a857600080fd5b6105d4600480803573ffffffffffffffffffffffffffffffffffffffff16906020019091905050610b7a565b005b6106788787878080601f01602080910402602001604051908101604052809392919081815260200183838082843782019150505050505086868080601f01602080910402602001604051908101604052809392919081815260200183838082843782019150505050505085858080601f016020809104026020016040519081016040528093929190818152602001838380828437820191505050505050610ccf565b50505050505050565b6000809054906101000a900473ffffffffffffffffffffffffffffffffffffffff1673ffffffffffffffffffffffffffffffffffffffff163373ffffffffffffffffffffffffffffffffffffffff161415156106dc57600080fd5b6000809054906101000a900473ffffffffffffffffffffffffffffffffffffffff1673ffffffffffffffffffffffffffffffffffffffff166108fc3073ffffffffffffffffffffffffffffffffffffffff16319081150290604051600060405180830381858888f19350505050151561075457600080fd5b565b61075e6110cd565b6107666110cd565b600080600360008673ffffffffffffffffffffffffffffffffffffffff1673ffffffffffffffffffffffffffffffffffffffff168152602001908152602001600020546040518059106107b65750595b9080825280602002602001820160405250925060009150600090505b600180549050811015610879578473ffffffffffffffffffffffffffffffffffffffff166002600083815260200190815260200160002060009054906101000a900473ffffffffffffffffffffffffffffffffffffffff1673ffffffffffffffffffffffffffffffffffffffff16141561086c5780838381518110151561085557fe5b906020019060200201818152505081806001019250505b80806001019150506107d2565b829350505050919050565b60018181548110151561089357fe5b90600052602060002090600502016000915090508060000160009054906101000a900460ff16908060010190806002019080600301908060040160009054906101000a900473ffffffffffffffffffffffffffffffffffffffff16905085565b6000809054906101000a900473ffffffffffffffffffffffffffffffffffffffff1681565b6000806109236110e1565b61092b6110e1565b6109336110e1565b60008060018881548110151561094557fe5b906000526020600020906005020190508060000160009054906101000a900460ff169650879550806001018054600181600116156101000203166002900480601f016020809104026020016040519081016040528092919081815260200182805460018160011615610100020316600290048015610a045780601f106109d957610100808354040283529160200191610a04565b820191906000526020600020905b8154815290600101906020018083116109e757829003601f168201915b50505050509450806002018054600181600116156101000203166002900480601f016020809104026020016040519081016040528092919081815260200182805460018160011615610100020316600290048015610aa35780601f10610a7857610100808354040283529160200191610aa3565b820191906000526020600020905b815481529060010190602001808311610a8657829003601f168201915b50505050509350806003018054600181600116156101000203166002900480601f016020809104026020016040519081016040528092919081815260200182805460018160011615610100020316600290048015610b425780601f10610b1757610100808354040283529160200191610b42565b820191906000526020600020905b815481529060010190602001808311610b2557829003601f168201915b505050505092508060040160009054906101000a900473ffffffffffffffffffffffffffffffffffffffff1691505091939550919395565b6000809054906101000a900473ffffffffffffffffffffffffffffffffffffffff1673ffffffffffffffffffffffffffffffffffffffff163373ffffffffffffffffffffffffffffffffffffffff16141515610bd557600080fd5b600073ffffffffffffffffffffffffffffffffffffffff168173ffffffffffffffffffffffffffffffffffffffff1614151515610c1157600080fd5b8073ffffffffffffffffffffffffffffffffffffffff166000809054906101000a900473ffffffffffffffffffffffffffffffffffffffff1673ffffffffffffffffffffffffffffffffffffffff167f8be0079c531659141344cd1fd0a4f28419497f9722a3daafe3b4186f6b6457e060405160405180910390a3806000806101000a81548173ffffffffffffffffffffffffffffffffffffffff021916908373ffffffffffffffffffffffffffffffffffffffff16021790555050565b60006001808054806001018281610ce691906110f5565b9160005260206000209060050201600060a0604051908101604052808a60ff1681526020018981526020018881526020018781526020013373ffffffffffffffffffffffffffffffffffffffff16815250909190915060008201518160000160006101000a81548160ff021916908360ff1602179055506020820151816001019080519060200190610d79929190611127565b506040820151816002019080519060200190610d96929190611127565b506060820151816003019080519060200190610db3929190611127565b5060808201518160040160006101000a81548173ffffffffffffffffffffffffffffffffffffffff021916908373ffffffffffffffffffffffffffffffffffffffff1602179055505050039050336002600083815260200190815260200160002060006101000a81548173ffffffffffffffffffffffffffffffffffffffff021916908373ffffffffffffffffffffffffffffffffffffffff160217905550610ea56001600360003373ffffffffffffffffffffffffffffffffffffffff1673ffffffffffffffffffffffffffffffffffffffff168152602001908152602001600020546110af90919063ffffffff16565b600360003373ffffffffffffffffffffffffffffffffffffffff1673ffffffffffffffffffffffffffffffffffffffff168152602001908152602001600020819055507f4473031b750bc879f231ab561fe0e9b0b2a441e364c588b2e02788b724039e16818686868633604051808781526020018660ff1660ff1681526020018060200180602001806020018573ffffffffffffffffffffffffffffffffffffffff1673ffffffffffffffffffffffffffffffffffffffff168152602001848103845288818151815260200191508051906020019080838360005b83811015610f9b578082015181840152602081019050610f80565b50505050905090810190601f168015610fc85780820380516001836020036101000a031916815260200191505b50848103835287818151815260200191508051906020019080838360005b83811015611001578082015181840152602081019050610fe6565b50505050905090810190601f16801561102e5780820380516001836020036101000a031916815260200191505b50848103825286818151815260200191508051906020019080838360005b8381101561106757808201518184015260208101905061104c565b50505050905090810190601f1680156110945780820380516001836020036101000a031916815260200191505b50995050505050505050505060405180910390a15050505050565b60008082840190508381101515156110c357fe5b8091505092915050565b602060405190810160405280600081525090565b602060405190810160405280600081525090565b8154818355818115116111225760050281600502836000526020600020918201910161112191906111a7565b5b505050565b828054600181600116156101000203166002900490600052602060002090601f016020900481019282601f1061116857805160ff1916838001178555611196565b82800160010185558215611196579182015b8281111561119557825182559160200191906001019061117a565b5b5090506111a39190611231565b5090565b61122e91905b8082111561122a57600080820160006101000a81549060ff02191690556001820160006111da9190611256565b6002820160006111ea9190611256565b6003820160006111fa9190611256565b6004820160006101000a81549073ffffffffffffffffffffffffffffffffffffffff0219169055506005016111ad565b5090565b90565b61125391905b8082111561124f576000816000905550600101611237565b5090565b90565b50805460018160011615610100020316600290046000825580601f1061127c575061129b565b601f01602090049060005260206000209081019061129a9190611231565b5b505600a165627a7a723058204bdc4cdde42f5afa83d99d4f4b7e2ec3bcee31e12dc53b718b7f22077101654a0029",
  "source": "pragma solidity ^0.4.18;\nimport \"./NoteCreation.sol\";\n/*\nThis contract contains helper functions that allows us to collect a patient's notes\n*/\n\ncontract PatientNotes is NoteCreation {\n\n  // @dev: getNotesByOwner will return an array of indexes associated with the total notes array\n  function getNotesByOwner(address _owner) external view returns(uint[]) {\n    uint[] memory result = new uint[](ownerNoteCount[_owner]);\n    uint counter = 0;\n    for (uint i = 0; i < notes.length; i++) {\n      if (noteToOwner[i] == _owner) {\n        result[counter] = i;\n        counter++;\n      }\n    }\n    return result;\n  }\n\n  //@dev makes the frontend work a little simpler to use the array returned from getNotesByOwner\n  function getNote(uint _noteId) external view returns (\n    uint8 age,\n    uint noteId,\n    string metaData,\n    string gender,\n    string encryptedData,\n    address creator\n  ) {\n    Note storage note = notes[_noteId];\n\n    age = note.age;\n    noteId = _noteId;\n    metaData = note.metaData;\n    gender = note.gender;\n    encryptedData = note.encryptedData;\n    creator = note.creator;\n  }\n}\n",
  "sourcePath": "/Users/schwartzz8990/Dropbox/Blockchain/myData-medical/app/contracts/PatientNotes.sol",
  "compiler": {
    "name": "solc",
    "version": "0.4.18+commit.9cf6e910.Emscripten.clang"
  },
  "schemaVersion": "1.0.1",
  "updatedAt": "2018-03-19T16:31:59.698Z"
}