{
  "contractName": "PatientNotes",
  "abi": [
    {
      "constant": false,
      "inputs": [],
      "name": "withdraw",
      "outputs": [],
      "payable": false,
      "stateMutability": "nonpayable",
      "type": "function"
    },
    {
      "constant": true,
      "inputs": [
        {
          "name": "_owner",
          "type": "address"
        }
      ],
      "name": "getNotesByOwner",
      "outputs": [
        {
          "name": "",
          "type": "uint256[]"
        }
      ],
      "payable": false,
      "stateMutability": "view",
      "type": "function"
    },
    {
      "constant": true,
      "inputs": [
        {
          "name": "",
          "type": "uint256"
        }
      ],
      "name": "notes",
      "outputs": [
        {
          "name": "age",
          "type": "uint8"
        },
        {
          "name": "gender",
          "type": "string"
        },
        {
          "name": "encryptedData",
          "type": "string"
        },
        {
          "name": "creator",
          "type": "address"
        }
      ],
      "payable": false,
      "stateMutability": "view",
      "type": "function"
    },
    {
      "constant": true,
      "inputs": [],
      "name": "owner",
      "outputs": [
        {
          "name": "",
          "type": "address"
        }
      ],
      "payable": false,
      "stateMutability": "view",
      "type": "function"
    },
    {
      "constant": true,
      "inputs": [
        {
          "name": "_noteId",
          "type": "uint256"
        }
      ],
      "name": "getNote",
      "outputs": [
        {
          "name": "age",
          "type": "uint8"
        },
        {
          "name": "gender",
          "type": "string"
        },
        {
          "name": "encryptedData",
          "type": "string"
        },
        {
          "name": "creator",
          "type": "address"
        }
      ],
      "payable": false,
      "stateMutability": "view",
      "type": "function"
    },
    {
      "constant": false,
      "inputs": [
        {
          "name": "_age",
          "type": "uint8"
        },
        {
          "name": "_gender",
          "type": "string"
        },
        {
          "name": "_encryptedData",
          "type": "string"
        }
      ],
      "name": "createNote",
      "outputs": [],
      "payable": true,
      "stateMutability": "payable",
      "type": "function"
    },
    {
      "constant": false,
      "inputs": [
        {
          "name": "newOwner",
          "type": "address"
        }
      ],
      "name": "transferOwnership",
      "outputs": [],
      "payable": false,
      "stateMutability": "nonpayable",
      "type": "function"
    },
    {
      "anonymous": false,
      "inputs": [
        {
          "indexed": false,
          "name": "noteId",
          "type": "uint256"
        },
        {
          "indexed": false,
          "name": "age",
          "type": "uint8"
        },
        {
          "indexed": false,
          "name": "gender",
          "type": "string"
        },
        {
          "indexed": false,
          "name": "creator",
          "type": "address"
        }
      ],
      "name": "NewNote",
      "type": "event"
    },
    {
      "anonymous": false,
      "inputs": [
        {
          "indexed": true,
          "name": "previousOwner",
          "type": "address"
        },
        {
          "indexed": true,
          "name": "newOwner",
          "type": "address"
        }
      ],
      "name": "OwnershipTransferred",
      "type": "event"
    }
  ],
  "bytecode": "0x6060604052336000806101000a81548173ffffffffffffffffffffffffffffffffffffffff021916908373ffffffffffffffffffffffffffffffffffffffff160217905550610fc5806100536000396000f300606060405260043610610083576000357c0100000000000000000000000000000000000000000000000000000000900463ffffffff1680633ccfd60b14610088578063570a3b271461009d57806361c3a7e61461012b5780638da5cb5b146102ad578063a965a94114610302578063d5c7f7391461044a578063f2fde38b1461048d575b600080fd5b341561009357600080fd5b61009b6104c6565b005b34156100a857600080fd5b6100d4600480803573ffffffffffffffffffffffffffffffffffffffff1690602001909190505061059b565b6040518080602001828103825283818151815260200191508051906020019060200280838360005b838110156101175780820151818401526020810190506100fc565b505050509050019250505060405180910390f35b341561013657600080fd5b61014c60048080359060200190919050506106c9565b604051808560ff1660ff16815260200180602001806020018473ffffffffffffffffffffffffffffffffffffffff1673ffffffffffffffffffffffffffffffffffffffff1681526020018381038352868181546001816001161561010002031660029004815260200191508054600181600116156101000203166002900480156102175780601f106101ec57610100808354040283529160200191610217565b820191906000526020600020905b8154815290600101906020018083116101fa57829003601f168201915b505083810382528581815460018160011615610100020316600290048152602001915080546001816001161561010002031660029004801561029a5780601f1061026f5761010080835404028352916020019161029a565b820191906000526020600020905b81548152906001019060200180831161027d57829003601f168201915b5050965050505050505060405180910390f35b34156102b857600080fd5b6102c0610733565b604051808273ffffffffffffffffffffffffffffffffffffffff1673ffffffffffffffffffffffffffffffffffffffff16815260200191505060405180910390f35b341561030d57600080fd5b6103236004808035906020019091905050610758565b604051808560ff1660ff16815260200180602001806020018473ffffffffffffffffffffffffffffffffffffffff1673ffffffffffffffffffffffffffffffffffffffff168152602001838103835286818151815260200191508051906020019080838360005b838110156103a557808201518184015260208101905061038a565b50505050905090810190601f1680156103d25780820380516001836020036101000a031916815260200191505b50838103825285818151815260200191508051906020019080838360005b8381101561040b5780820151818401526020810190506103f0565b50505050905090810190601f1680156104385780820380516001836020036101000a031916815260200191505b50965050505050505060405180910390f35b61048b600480803560ff169060200190919080359060200190820180359060200191909192908035906020019082018035906020019190919290505061090d565b005b341561049857600080fd5b6104c4600480803573ffffffffffffffffffffffffffffffffffffffff16906020019091905050610983565b005b6000809054906101000a900473ffffffffffffffffffffffffffffffffffffffff1673ffffffffffffffffffffffffffffffffffffffff163373ffffffffffffffffffffffffffffffffffffffff1614151561052157600080fd5b6000809054906101000a900473ffffffffffffffffffffffffffffffffffffffff1673ffffffffffffffffffffffffffffffffffffffff166108fc3073ffffffffffffffffffffffffffffffffffffffff16319081150290604051600060405180830381858888f19350505050151561059957600080fd5b565b6105a3610dd8565b6105ab610dd8565b600080600360008673ffffffffffffffffffffffffffffffffffffffff1673ffffffffffffffffffffffffffffffffffffffff168152602001908152602001600020546040518059106105fb5750595b9080825280602002602001820160405250925060009150600090505b6001805490508110156106be578473ffffffffffffffffffffffffffffffffffffffff166002600083815260200190815260200160002060009054906101000a900473ffffffffffffffffffffffffffffffffffffffff1673ffffffffffffffffffffffffffffffffffffffff1614156106b15780838381518110151561069a57fe5b906020019060200201818152505081806001019250505b8080600101915050610617565b829350505050919050565b6001818154811015156106d857fe5b90600052602060002090600402016000915090508060000160009054906101000a900460ff1690806001019080600201908060030160009054906101000a900473ffffffffffffffffffffffffffffffffffffffff16905084565b6000809054906101000a900473ffffffffffffffffffffffffffffffffffffffff1681565b6000610762610dec565b61076a610dec565b60008060018681548110151561077c57fe5b906000526020600020906004020190508060000160009054906101000a900460ff169450806001018054600181600116156101000203166002900480601f0160208091040260200160405190810160405280929190818152602001828054600181600116156101000203166002900480156108385780601f1061080d57610100808354040283529160200191610838565b820191906000526020600020905b81548152906001019060200180831161081b57829003601f168201915b50505050509350806002018054600181600116156101000203166002900480601f0160208091040260200160405190810160405280929190818152602001828054600181600116156101000203166002900480156108d75780601f106108ac576101008083540402835291602001916108d7565b820191906000526020600020905b8154815290600101906020018083116108ba57829003601f168201915b505050505092508060030160009054906101000a900473ffffffffffffffffffffffffffffffffffffffff169150509193509193565b61097c8585858080601f01602080910402602001604051908101604052809392919081815260200183838082843782019150505050505084848080601f016020809104026020016040519081016040528093929190818152602001838380828437820191505050505050610ad8565b5050505050565b6000809054906101000a900473ffffffffffffffffffffffffffffffffffffffff1673ffffffffffffffffffffffffffffffffffffffff163373ffffffffffffffffffffffffffffffffffffffff161415156109de57600080fd5b600073ffffffffffffffffffffffffffffffffffffffff168173ffffffffffffffffffffffffffffffffffffffff1614151515610a1a57600080fd5b8073ffffffffffffffffffffffffffffffffffffffff166000809054906101000a900473ffffffffffffffffffffffffffffffffffffffff1673ffffffffffffffffffffffffffffffffffffffff167f8be0079c531659141344cd1fd0a4f28419497f9722a3daafe3b4186f6b6457e060405160405180910390a3806000806101000a81548173ffffffffffffffffffffffffffffffffffffffff021916908373ffffffffffffffffffffffffffffffffffffffff16021790555050565b60006001808054806001018281610aef9190610e00565b916000526020600020906004020160006080604051908101604052808960ff1681526020018881526020018781526020013373ffffffffffffffffffffffffffffffffffffffff16815250909190915060008201518160000160006101000a81548160ff021916908360ff1602179055506020820151816001019080519060200190610b7c929190610e32565b506040820151816002019080519060200190610b99929190610e32565b5060608201518160030160006101000a81548173ffffffffffffffffffffffffffffffffffffffff021916908373ffffffffffffffffffffffffffffffffffffffff1602179055505050039050336002600083815260200190815260200160002060006101000a81548173ffffffffffffffffffffffffffffffffffffffff021916908373ffffffffffffffffffffffffffffffffffffffff160217905550610c8b6001600360003373ffffffffffffffffffffffffffffffffffffffff1673ffffffffffffffffffffffffffffffffffffffff16815260200190815260200160002054610dba90919063ffffffff16565b600360003373ffffffffffffffffffffffffffffffffffffffff1673ffffffffffffffffffffffffffffffffffffffff168152602001908152602001600020819055507f9f7a8dbddd308f6b93d25d5f2b42c1e464c00db67412db62532731e2a74a32fb81858533604051808581526020018460ff1660ff168152602001806020018373ffffffffffffffffffffffffffffffffffffffff1673ffffffffffffffffffffffffffffffffffffffff168152602001828103825284818151815260200191508051906020019080838360005b83811015610d77578082015181840152602081019050610d5c565b50505050905090810190601f168015610da45780820380516001836020036101000a031916815260200191505b509550505050505060405180910390a150505050565b6000808284019050838110151515610dce57fe5b8091505092915050565b602060405190810160405280600081525090565b602060405190810160405280600081525090565b815481835581811511610e2d57600402816004028360005260206000209182019101610e2c9190610eb2565b5b505050565b828054600181600116156101000203166002900490600052602060002090601f016020900481019282601f10610e7357805160ff1916838001178555610ea1565b82800160010185558215610ea1579182015b82811115610ea0578251825591602001919060010190610e85565b5b509050610eae9190610f2c565b5090565b610f2991905b80821115610f2557600080820160006101000a81549060ff0219169055600182016000610ee59190610f51565b600282016000610ef59190610f51565b6003820160006101000a81549073ffffffffffffffffffffffffffffffffffffffff021916905550600401610eb8565b5090565b90565b610f4e91905b80821115610f4a576000816000905550600101610f32565b5090565b90565b50805460018160011615610100020316600290046000825580601f10610f775750610f96565b601f016020900490600052602060002090810190610f959190610f2c565b5b505600a165627a7a723058200ff0c6ce0d8dc2a9eeef462e758a03b878b538c7680ddd3314e6f5303b28cc920029",
  "source": "pragma solidity ^0.4.18;\nimport \"./NoteCreation.sol\";\n/*\nThis contract contains helper functions that allows us to collect a patient's notes\n*/\n\ncontract PatientNotes is NoteCreation {\n\n  // @dev: getNotesByOwner will return an array of indexes associated with the total notes array\n  function getNotesByOwner(address _owner) external view returns(uint[]) {\n    uint[] memory result = new uint[](ownerNoteCount[_owner]);\n    uint counter = 0;\n    for (uint i = 0; i < notes.length; i++) {\n      if (noteToOwner[i] == _owner) {\n        result[counter] = i;\n        counter++;\n      }\n    }\n    return result;\n  }\n\n  //@dev makes the frontend work a little simpler to use the array returned from getNotesByOwner\n  function getNote(uint _noteId) external view returns (\n    uint8 age,\n    string gender,\n    string encryptedData,\n    address creator\n  ) {\n    Note storage note = notes[_noteId];\n\n    age = note.age;\n    gender = note.gender;\n    encryptedData = note.encryptedData;\n    creator = note.creator;\n  }\n}\n",
  "sourcePath": "/Users/schwartzz8990/Dropbox/Blockchain/myData-medical/app/contracts/PatientNotes.sol",
  "compiler": {
    "name": "solc",
    "version": "0.4.18+commit.9cf6e910.Emscripten.clang"
  },
  "schemaVersion": "1.0.1",
  "updatedAt": "2018-03-13T18:01:23.146Z"
}